:020000041000EA
:10000000002008205B0100101B0100101D010010E2
:100010001101001011010010110100101101001058
:100020001901001019010010190100101F01001022
:10003000110100101901001021010010230100100E
:100040001101001011010010110100101101001028
:100050001101001011010010110100101101001018
:100060001101001011010010110100101101001008
:1000700011010010110100101101001011010010F8
:1000800011010010110100101101001011010010E8
:1000900011010010110100101101001011010010D8
:1000A00011010010110100101101001011010010C8
:1000B00011010010110100101101001011010010B8
:1000C00011010010110100101101001011010010A8
:1000D0001101001011010010110100101101001098
:1000E0001101001011010010110100101101001088
:1000F0001101001011010010110100101101001078
:100100001101001011010010110100101101001067
:10011000EFF30580103800BE00BE00BE00BE00BE7A
:1001200000BE00BEF2EB8871101500102C150010F7
:100130009C01001090A31AE7D3DEFFFF42012110BB
:10014000FF0100007C160000793512AB00201E492B
:10015000086006C881F3088810474FF050400068D7
:1001600008B10020F3E70DA40ECC002902D000F066
:1001700012F8F9E71549164A002000E001C1914242
:10018000FCD114498847144988471449884700BE60
:10019000FDE701C901C29A42FBD370472C1500103C
:1001A0001001002098030020B41700100000082060
:1001B00000000820B41700100010082000100820CC
:1001C000000000007047000008ED00E098030020E8
:1001D00098050020E1100010E1010010D910001076
:1001E00070B50F2000F016F84FF001050F2345EC15
:1001F00044304FF000060F2445EC40404FF4FA70B5
:1002000000F0EEFB46EC40404FF4FA7000F0E8FBE3
:10021000F1E700BF4FF0000300B543EC440043ECAE
:1002200040004FF0050E4FF4807C0C4BC20053F899
:10023000201003EB800081F0400102F1804303F5C0
:10024000203301F0C00200F5805100F540500A60F3
:10025000C3F804E0C0F800C000BD00BF0480034044
:100260000FB400B5084883B001F068F8049B3BB1B7
:1002700005A91846019100F013FF044801F05EF84B
:10028000012000F025FF00BF3014001040140010C2
:1002900070B51646EFF3108472B6DFF848E0DEE87A
:1002A000CF2F0123002AFAD1CEE8423F002AF6D10F
:1002B000BFF35F8F012301F0070CCA0803FA0CF3A8
:1002C00010F802C01CEA030508D14CEA030C00F840
:1002D00002C0CEE88F5F84F3108870BD3046FFF710
:1002E000BFFF00BF23050020044A1078431CDBB287
:1002F000182B28BF10231370704700BF680300201D
:100300004FF0E022936843F000539360704700BFC2
:100310000021044B03F12002C3E88F1F01339342F5
:10032000FAD17047180500204FF0E0234FF08032DB
:10033000C3F80024C3F80424C3F80824C3F80C2429
:10034000C3F81024C3F81424C3F81824C3F81C24D9
:10035000C3F82024C3F82424C3F82824C3F82C2489
:10036000C3F8302462B67047012300F01F029340A7
:10037000400941B1800000F1604000F56140C0F8E3
:10038000803103607047024A203042F820307047C5
:1003900000E100E008B5EFF3108E72B6134BD3E81E
:1003A000CFCF0122BCF1000FF9D1C3E84C2FBCF133
:1003B000000FF4D1BFF35F8F0D4A10309268DFF861
:1003C00034C052F82020624501D091420BD1084A36
:1003D000926842F82010BFF35F8F0022C3E88F2F8E
:1003E0008EF3108808BD00F047FD00BF21050020F6
:1003F00000ED00E011010010014B0B440360704759
:100400001805002070B5104C104DAC420ED2FF26DE
:10041000236863B1FFF768FF01462046FFF7ECFF52
:10042000A680BFF35F8F0834AC42F1D370BDFFF7F5
:100430005BFF01462046FFF7DFFF2671BFF35F8FAA
:100440000834AC42E4D370BD900300209803002030
:1004500010490B68EFF3108072B6D3E8CFCF0122BA
:10046000BCF1000FF9D1C3E84C2FBCF1000FF4D15F
:10047000BFF35F8F084A4FF0000C1378096801330F
:100480001370C1E88FCF80F3108840BF0020002197
:10049000704700BF90050020940500200000000078
:1004A0002DE9F04F2DED028B85B0EFF30583DBB224
:1004B000103B9A0818BF01224FF0010103F0030B13
:1004C00018BFA94CA94B08BFA94C0BEB820253F8EB
:1004D000225001FA0BF204F541539FEDA18B0292D9
:1004E0005A602FE0AB88190440F19480AB79002B5F
:1004F00040F0DE80B5F90860002EC0F21C816B6907
:1005000006EB460603EBC603D3E90267B7F1FF3FEC
:1005100008BFB6F1FF3F0ED004EB8B01A36A0A6956
:10052000D21AF31A934205D30123226A03FA0BF37A
:10053000134200D10E61204600F076FBB042B94173
:10054000C0F2F980B5F90860029B002EE363C9DBB5
:10055000D5F8149006EB460A09EBCA07BB6820469B
:10056000D7F80C80019300F05FFB019B984271EB80
:100570000801B7DBB8F1000FC0F2C080D7E9043141
:100580007C4A934200F0F8807A88B5F9080092B26C
:1005900042EA0040984702460B4652EA030100F047
:1005A000AD80002B80F2CD800199B1EB020E68EB9B
:1005B000030839F93A30C7E902E8002B92DB686991
:1005C00003EB430200EBC202D2E90271BE4578EBB5
:1005D000010C4FEA430285DBAC462CF8083F06E0ED
:1005E00003EB430100EBC1015A00D1E90271BE45A2
:1005F00078EB01011A4405DB30F9323000EBC20C14
:10060000002BEDDA29F83A30ACF80060AB88190419
:100610003FF56CAF2B69EFF3108272B6D3E8CF0FC2
:1006200001210028FAD1C3E8401F0028F6D1BFF30A
:100630005F8F4FF6FF76A8880023296900B2AE804D
:10064000C1E88F3F82F310889842FFF64FAF07460C
:10065000A1466E6905F10808B5F9083007EB470EA9
:10066000002BC44606EBCE0215DBD2E90240AA46B7
:10067000019704E036F935309446002B09DB03EB93
:10068000430506EBC502D2E90271BC4270EB0101E1
:10069000F0DA5546019FACF8007036F93E7026F846
:1006A0003E30002FD8DAAB794C46002B3FF422AF16
:1006B0000023AB71B5F90860721C33463BD0686902
:1006C00005F1080E03E08E465A1C3FF415AF03EB0C
:1006D000430200EBC2014F889C463F0430F93230A0
:1006E000F1D5664581ED028BEED0AEF80030298958
:1006F000664620F83210A5F808C0E5E739F83A3028
:100700002B812B69EFF3108272B6D3E8CF0F012152
:100710000028FAD1C3E8401F0028F6D1BFF35F8F4D
:100720006B88296929F83A3000236E80C1E88F3F31
:1007300082F31088D6E640BF05B0BDEC028BBDE861
:10074000F08F20460393019200F06EFA019A039B0A
:1007500010EB020E43EB01082BE700BFAFF3008064
:10076000FFFFFFFFFFFFFFFF00800B407005002031
:1007700000000B40A104001008460B690391984744
:100780000028BBD00399D1E9002306E738B5384BE0
:100790001C692CB1BDE838400A213648FFF72CBE51
:1007A0000321354800F02EFA334D314BDD60FFF761
:1007B0009BFD324A4FF0504E024403202C4B4FF029
:1007C0000F0C18701A61DEF800204FF6FF715A7096
:1007D0005A69A3F802C014834FF00204A2F84840FB
:1007E0004FF00404A2F878404FF00504A2F89040BE
:1007F0004FF00604A2F8A8404FF00704A2F8C0404A
:100800004FF00904A2F8F0404FF00A04A2F80841A2
:100810004FF00B04A2F820414FF00C04A2F838412D
:100820004FF0010414864FF00804A2F8D840144C8D
:100830004FF00D0E4FF00E0C9C6008249980A2F82A
:1008400050E1A2F868C1A2F8600011800D4A2C6244
:100850000D49D360FFF79EFD01210320FFF784FDC2
:100860000A4B0A211C640348BDE83840FFF7C4BDA9
:10087000780300209005002000000B4018050020A0
:10088000FFFF100070050020A104001000200B40A5
:10089000F0B516461F4602690346EFF3108072B6A4
:1008A000D2E8CF4F0121002CFAD1C2E8441F002C1E
:1008B000F6D1BFF35F8FB3F902101D69002945DB44
:1008C000D3F814E001EB41023EF832400EEBC20CCB
:1008D0005C800024C5E88F4F80F31088059835466A
:1008E000CCF8100006983E46CCF81400BCF8020084
:1008F000CCE902560130C0F30E00012838BF0120B8
:10090000ACF8020040EA0140D3F810C0EFF31085C4
:1009100072B6DCE8CF7F0126002FFAD1CCE8476F12
:10092000002FF6D1BFF35F8FB3F804C02EF832C0AA
:1009300099801A69C2E88F4F85F3108801211C78CD
:10094000DA68A14002F501535960F0BD0023C5E803
:100950008F3F80F310884FF0FF30F0BD0346408991
:10096000B0EB214F3ADD58690A1402EB420210B590
:10097000D3F810C000EBC200EFF3108E72B6DCE8C3
:10098000CF4F0122002CFAD1CCE8442F002CF6D115
:10099000BFF35F8F428889B292B28A4207D00022A9
:1009A0001B69C3E88F2F8EF31088002010BD6FEAFB
:1009B00042426FEA52424280012100221869997135
:1009C000C0E88F2F8EF3108893F800C0DA680846CD
:1009D00002F5015301FA0CF1596010BD0020704777
:1009E0002DE9F04383B0064600F026F94FF47A7300
:1009F00004464FF0FF306FF00042E6FB0341A04297
:100A000072EB01033ABF044615460D46A61F45F199
:100A1000FF37B44275EB07033CBF0026374600F0B2
:100A20000BF9301A67EB0101012871F1000106DAB8
:100A30002046294603B0BDE8F04300F007B900F0B6
:100A4000FBF8864267EB010100290ADB00211D4B00
:100A5000324600931C483B460191FFF719FF0130D5
:100A6000E6D04FF0000E194ADFF868C01849536A03
:100A70009F4204D8906AB042DAD29F42D8D1DCF8C3
:100A80000030EFF3108072B6D3E8CF9F5FF001081B
:100A9000B9F1000FF8D1C3E8498FB9F1000FF3D1D4
:100AA000BFF35F8F0B785FFA83F8DCF80030C3E8A0
:100AB0008FEF80F310880878804500D120BF20BFD9
:100AC000D5E700BF510400107803002000000B4060
:100AD0009405002090050020F0B5024685B0EFF3A4
:100AE0000585EDB2002D61D10B46424CD4E90001E1
:100AF000994208BF90424AD0CDE902233E4BDF68BD
:100B00001E78384600F090F806F1040C57F82CC017
:100B1000029A039BACEB000C101A63EB01016045D9
:100B200071F1000133DACDE9022300F085F8029A71
:100B3000039B824263EB0101002949DB2F492E48C8
:100B400000910195CDE90232FFF7A2FEDDE9023204
:100B5000011E3DDD2A48C4E90023446A9C4246D375
:100B6000806A904241D32448CDE90232FFF7F6FE75
:100B70002349029B486A98421CD314BF01200020DD
:100B80008B6A039A934228BF40F001000CE020BF1B
:100B90001B49486A98420DD314BF012000208B6A7C
:100BA000934228BF40F0010005B0F0BD1448436AED
:100BB0008B4202D2002005B0F0BD14BF01230023F8
:100BC000816A914234BF184643F0010005B0F0BD80
:100BD0000B49486A9842EDD3C01A18BF01208B6AAE
:100BE000934228BF40F00100DEE79C42BBD120BF0A
:100BF000B9E700BF70030020780300205104001003
:100C000000000B4010B4054B054C064AA04214BF2F
:100C10001846581C10BCFFF73BBB00BF380500202E
:100C200000800B40441400100346416A0A46986A4B
:100C3000596A8A42FAD17047034B596A0A46986A40
:100C4000596A9142FAD1704700000B40074A536A33
:100C50009942FCD8994207D1044B02E05A6A91426A
:100C600002D19A6A9042F9D8704700BF00000B4049
:100C700000EB400C4FEA8C0C0CF1804C0CF5803CE6
:100C800070B51E46DCF80430041FB3F5803F38BF52
:100C90004FF48033E4B238BFCCF80430012C2ED9A5
:100CA0004FF40065284B0CF5405ECEF8005053F829
:100CB00020E0BEF1000F17D1DCF800E0012C8EEA35
:100CC000421202F0E0020CF5805ECEF800202BD933
:100CD0004FF4006143F820604FF480330CF500526C
:100CE0001160CCF8043070BD5D69B5FBFEFE0EF1FD
:100CF000010E0EEB4E0EBEF1030EFCD2DCE7012915
:100D0000CED103240CF540531C60DCF80830DB071F
:100D1000FBD5DCF800300CF5805E83EA421303F06B
:100D2000E003CEF80030084B0122DCF800404C40D4
:100D300004F00304CEF8004002FA01F1DCF80820C8
:100D40000A42FBD0C4E700BF3C050020014B53F82A
:100D5000200070473C05002010B5029C8E464FEAEB
:100D6000043C4CEA034C1C4BB3FBF1F30168B2FBAF
:100D7000F3F4002920DB194A194B904214BF4FF4B9
:100D800080424FF4004217491A6003F580531A60FD
:100D90008B6832EA0303FBD1212200F54053043370
:100DA000C0F800E084601A600268002AFCDA0822B9
:100DB000C0F80CC01A6010BD036803F03F03734510
:100DC000D9D18368C3F30B03A342D4D1C36803F41E
:100DD000EE236345CFD110BD001BB7000080054056
:100DE0000020024000000240012300EB4000800090
:100DF00000F1804000F5841041600360704700BF3F
:100E00000023DB8A002242E800F2520201D41021C2
:100E100018470421184700BF034AD2F82838002B8E
:100E2000FBD0BFF35F8F704700000E400021044BE2
:100E3000044ABFF35F8F43F8041B9342F9D1704714
:100E40000C080E402C080E404FF42A6C4FF48D70A5
:100E5000054A064B0649C2F800C0D06019605368C5
:100E6000002BFCDA704700BF0080044000A0044063
:100E700000B0FA00704700BF08B50148FFF7F0F96D
:100E80006814001038B5054C054DAC4204D254F836
:100E9000043B9847AC42FAD338BD00BFF0130010B2
:100EA000301400100648DFF828C0064B064A0749F0
:100EB000C0F800C01A608B6832EA0303FBD17047A8
:100EC0000020024000300240F6FFF3030000024021
:100ED0007F3BEFEF044BDB6CB3F5004F03D14FF4D6
:100EE0008022024BDA64704700001150002011503C
:100EF0004FF0E022044BD2F8881D0B43C2F8883D26
:100F000010EE3004704700BF030330006FF0604103
:100F1000044B054A19609368DB4333F06043FAD110
:100F2000704700BF003002400000024010B545F29B
:100F30005320FFF765FFBDE8104003460420184723
:100F400010B545F25320FFF75BFFBDE810400346A4
:100F500001201847FFF7DCB91349144B70B55C1A30
:100F6000A508442D2A4628BF4422114E920030463F
:100F700000F036FA432D13D80E4A0FD0C5F14400C5
:100F80003319410803EBC101C3E9002208338B4246
:100F9000FAD1C30704D520F00100054446F8252006
:100FA000054B9E6070BD00BF0000001010010010D6
:100FB000000000201101001000ED00E0002370B5DA
:100FC0002B4C82B0C4F88430FFF73EFF0122294B3E
:100FD000DA63636C012BFCD10321264A244B116395
:100FE0009C6B012CFCD10226052521460523224AB3
:100FF00022480096FFF7B0FE21462B46204A2148A2
:101000000095FFF7A9FE0022042031461E4BFFF792
:101010002FFE2146284600221C4BFFF729FE002206
:10102000082011461A4BFFF723FE00220920114623
:10103000174BFFF71DFE002206201146134BFFF74A
:1010400017FE0022114B07201146FFF711FE042066
:10105000FFF77CFE00240F4BA3FB0035AD0CE0B284
:1010600029460134FFF7C0FE062CF8D102B070BD4E
:101070000000014000300140002F68590000054089
:10108000008C864700800540001BB70080D1F00827
:10109000006CDC0283DE1B4300B9704700F00CB922
:1010A00010B5094A84B014684CB1034600914FF062
:1010B000FF3203A90548A047012004B010BD00F08D
:1010C0003DF9204604B010BD6C05002099100010B9
:1010D00000BEFDE7704700BF08B5FFF7F9FF00BF8E
:1010E00038B5064C064DFFF7CDFEAC4204D254F89D
:1010F000043B9847AC42FAD338BD00BF301400100F
:1011000030140010036808461146184770B50546AC
:101110000846697D82B000294FD0002A25DD03787A
:1011200014460A2B064622D0012C4FF0000E0DD09B
:101130003246012312F801CF1946BCF10A0F03F120
:10114000010320D09C42F5D1744505DD2B68A4EB4A
:101150000E0106EB0E009847311911F8013CA3F17E
:101160000D03B3FA83F35B092B7502B070BD2B7DC1
:10117000002BD9D102212B6813489847012CEBD0C2
:101180004FF0010ED4E712F8010C0D28DAD08E458D
:1011900006EB0E00A1EB0E0105DACDE900322B685B
:1011A0009847DDE90032CDE9003202212B6806487C
:1011B0009847009B019A9E46C4E711462B6802B0EF
:1011C000BDE87040184700BF041500102DE9F04736
:1011D00082B090461C460D460746FFF72DFD4FF0A6
:1011E000FF3C6FF000462E4A821841F100039445FF
:1011F00076EB03013CBF624633462A4800F0ECF828
:101200006B1C824640D00CB3274E284B1C68B4B1EF
:10121000B8F1000F1CD1DFF89C8001E0246974B1A3
:101220002368002BFAD0D8F800300BB19C42F5D1DE
:1012300020462A463946B0472469002CF0D1BAF13D
:10124000000F26D1284602B0BDE8F087184EDCE733
:101250004FF00A09DFF85C8002E02469002CEED030
:101260002368002BF9D0D8F800300BB1A342F4D199
:101270002A4639462046B047012220460DF1070193
:101280008DF80790B047E8E7384600F075F8054656
:10129000B9E7044800F0A8F8284602B0BDE8F08796
:1012A00040420F00900300200D1100106405002043
:1012B0000511001068050020F0B583B006468DF8D2
:1012C0000700FFF7B9FC4FF0FF356FF00044174AF5
:1012D000821841F10003954274EB03013CBF2346A1
:1012E0002A46134800F078F8124B07461C689CB158
:1012F000114D01E024697CB12368002BFAD02B68E2
:101300000BB19C42F6D1204601220DF10701FFF7F7
:10131000FDFE2469002CEFD117B9304603B0F0BDB3
:10132000034800F061F8304603B0F0BD40420F00C2
:1013300090030020640500206805002038B50446AD
:1013400000F01AF8012305461A4620462946FFF701
:101350003DFF084B1C682CB163682BB1984724698A
:10136000002CF9D1284638BD2469002CF4D1284638
:1013700038BD00BF6405002020F0030110F0030019
:10138000C0F1000051F8043B00F1040C4FEACC0C12
:101390006FF000021CBF22FA0CF213434FF0010C55
:1013A0004CEA0C2C4CEA0C4CA3EB0C0222EA030294
:1013B00012EACC1204BF51F8043B0430F4D0C2F15D
:1013C000000102EA0102B2FA82F2C2F11F0200EB4E
:1013D000D2007047000000005FF800F0F10100202B
:1013E0005FF800F0710200205FF800F02902002091
:1013F0002D0F0010A50E0010D50E0010BD0F00100F
:101400000D0F00102D0E0010550F0010190E0010BA
:1014100005040010590F00108D070010750E001004
:10142000410F0010F10E00100103001029030010FD
:101430000A2A2A2A2050414E4943202A2A2A0A00F1
:1014400000000000486172647761726520616C6120
:10145000726D20256420616C726561647920636C13
:1014600061696D6564000000486172642061737396
:101470006572740052656C6561736500626F6F74AC
:10148000325F77323571303830000000322E332E23
:10149000300000007069636F32000000626C696E9A
:1014A0006B00000041756720323320323032360045
:1014B00006005250D3F075427414001006005250CA
:1014C000E182887F7C14001006005250ABB3605359
:1014D0008C14001006005250BBFF3CB69414001050
:1014E00006005250861C03029C1400100600525045
:1014F0005422A29DA414001005005250DE65F46829
:08150000C81700100D0A0000DD
:0815080068EDFF0F0100000077
:10151000B0140010BC140010C8140010D414001033
:0C152000E0140010EC140010F81400108F
:10152C00034600B50268EFF3108C72B6D2E8CFEF29
:10153C000120BEF1000FF9D1C2E84E0FBEF1000F31
:10154C00F4D1BFF35F8F93F90420002A09DB01B1BA
:10155C000A60002000221B68C3E88F2F8CF31088D0
:10156C0000BD4FF05042126801201A71F2E700BF23
:10157C004FF050412DE9F8431F460B6804461646C0
:10158C0000259946DFF874802368EFF3108272B659
:10159C00D3E8CF0F01210028FAD1C3E8401F00285F
:1015AC00F6D1BFF35F8F94F904302168002B1BDB5D
:1015BC0098F80030DBB2C1E88F5F82F3108898F89E
:1015CC0000209A4208D03046394600F0D1F8002865
:1015DC00DAD00020BDE8F88320BF3046394600F051
:1015EC00C7F80028D0D0F4E7002384F80490C1E8B1
:1015FC008F3F82F310880120BDE8F883940500200A
:10160C0070B582B001A9064614461D46FFF788FF47
:10161C0038B94FF050439DF9042093F900309A42A9
:10162C0001D102B070BD22462B46304602B0BDE857
:10163C007040FFF79DBF00BF0368EFF3108172B6D7
:10164C00D3E8CFCF0122BCF1000FF9D1C3E84C2F66
:10165C00BCF1000FF4D1BFF35F8F4FF0FF0C074AC2
:10166C0080F804C013780133137000230268C2E8B9
:10167C008F3F81F3108840BF704700BF9405002056
:10168C00844641EA000313F0030349D1403A23D3C3
:10169C000B6803604B6843608B688360CB68C360E6
:1016AC000B6903614B6943618B698361CB69C361CE
:1016BC000B6A03624B6A43628B6A8362CB6AC362B6
:1016CC000B6B03634B6B43638B6B8363CB6BC3639E
:1016DC0040304031403ADBD230320BD30B680360E0
:1016EC004B6843608B688360CB68C36010301031EB
:1016FC00103AF3D20C3205D351F8043B40F8043BBA
:10170C00043AF9D2043208D0D2071CBF11F8013BBD
:10171C0000F8013B01D30B8803806046704700BF83
:10172C00082A13D38B07B1D010F00303AED0C3F14A
:10173C000403D21ADB071CBF11F8013B00F8013B74
:10174C00A4D331F8023B20F8023B9FE7043AD9D3EB
:10175C00013A11F8013B00F8013BF9D20B78037008
:10176C004B7843708B7883706046704700000000A4
:10177C005FF800F0D90A0010100000000000000013
:10178C00FFFFFFFFFFFFFF7F0000000000000000D5
:10179C000000000000000000000000009803002082
:0817AC00000000000000000035
:1017B400D3DEFFFFFE010000FF01000084E9FFFF0C
:0417C400793512ABB6
:040000051000014D99
:00000001FF
