:020000041000EA
:10000000002008205B0100101B0100101D010010E2
:100010001101001011010010110100101101001058
:100020001901001019010010190100101F01001022
:10003000110100101901001021010010230100100E
:100040001101001011010010110100101101001028
:100050001101001011010010110100101101001018
:100060001101001011010010110100101101001008
:1000700011010010110100101101001011010010F8
:1000800011010010110100101101001011010010E8
:1000900011010010110100101101001011010010D8
:1000A00011010010110100101101001011010010C8
:1000B00011010010110100101101001011010010B8
:1000C00011010010110100101101001011010010A8
:1000D0001101001011010010110100101101001098
:1000E0001101001011010010110100101101001088
:1000F0001101001011010010110100101101001078
:100100001101001011010010110100101101001067
:10011000EFF30580103800BE00BE00BE00BE00BE7A
:1001200000BE00BEF2EB8871000101101C0101103D
:100130009C01001090A31AE7D3DEFFFF42012110BB
:10014000FF01000040220100793512AB00201E495A
:10015000086006C881F3088810474FF050400068D7
:1001600008B10020F3E70DA40ECC002902D000F066
:1001700012F8F9E71549164A002000E001C1914242
:10018000FCD114498847144988471449884700BE60
:10019000FDE701C901C29A42FBD370471C0101105F
:1001A000100100206C23002078230110000008209B
:1001B00000000820782301100010082000100820FB
:1001C000000000007047000008ED00E06C230020F4
:1001D00040270020BD31001049020010B531001049
:1001E00070B500F1080684B0066039B304460846CD
:1001F0000D460DF0BBF80F28034603900DD80128DB
:1002000008D12B7823720021039B22686360D154AC
:1002100004B070BD0028F6D00AE00022019003A9C6
:10022000204603F0B7FA0646039A019BA2602060BD
:100230001A46294630460DF083FFE4E7014803F0F3
:100240009FF900BFA8E100102DE9F04F2DED028BC2
:100250000421E3B00F2000F0B1FA052001F072F89C
:1002600007EE900A4FF4C8639FED847AF8EE677A40
:10027000DFF830828249C8F8903002A887EE878A7A
:10028000FFF7AEFF7F4908A8FFF7AAFF7E490EA837
:10029000FFF7A6FF7D4914A8FFF7A2FF7B491AA824
:1002A000FFF79EFF794920A8FFF79AFF784926A813
:1002B000FFF796FF74492CA8FFF792FF744932A804
:1002C000FFF78EFF714938A8FFF78AFF6F493EA8F4
:1002D000FFF786FF6D4944A8FFF782FF6C494AA8E3
:1002E000FFF77EFF684950A8FFF77AFF684956A8D4
:1002F000FFF776FF62495CA8FFF772FFDFF8A8A15D
:10030000DAF80C300DF12009142B59E9067554D890
:10031000DAF80840002C00F093805E4E35B98BE08F
:1003200023682646002B00F08B801C4663689D42A4
:10033000F6D12A463846A1680DF0F2FE0028EFD12A
:100340003368002B00F0818093ED037AC8EE077AC2
:10035000FCEEE77A17EE903A013B9AB2C8F89C207F
:10036000D8F898205B084C4C82EA03436FF30F03E4
:10037000C4F89830D8F88C30FA20DB4303F001033E
:10038000C4F88C3000F0F8FDD8F88C300F2203F060
:1003900001034FF00001C4F88C3041EC40202820CC
:1003A00000F0EAFD09F1180968AB4B45A8D059E9FE
:1003B0000675DAF80C30142BAAD929463846374A84
:1003C00003F080F8DAF804B0DAF80030B0FBFBFC98
:1003D0000BFB1C0C53F82C60002E36D034682369BC
:1003E000002D35D02A460546AB42CDF80090B946DF
:1003F000674602D163689A420FD0216829B30B691E
:100400002646B3FBFBF00BFB103087421DD1AB42FD
:100410000C46F2D163689A42EFD14846A168019236
:100420000DF07EFE019A0028E7D1DDF8009087E705
:100430002368264623B11C466368002BF8D17FE76A
:1004400029463846154A03F03DF8154803F0C8F828
:10045000834203D16368002B3FF472AF2268002A05
:10046000F3D013692646B3FBFBF10BFB11318C452E
:10047000EBD183421446F1D1ECE700BF0000C84243
:10048000DCE10010E0E10010E4E10010E8E1001020
:10049000ECE100100825002000900A4007690FC712
:1004A000F0E1001000800A400025002001232DE922
:1004B000F04F9C4A9C4D9DB009920F959B4A9C4DD4
:1004C000CDE90A3207930D93109313931693199362
:1004D0006B604FF07E5300249648974A08909748E7
:1004E0009749129097482B610E9097481592179054
:1004F00005F1100000F10803944A2B60944B0C9115
:10050000944918921193944A944B1B912146149349
:10051000C5E90244C5E905441A9203F079F86B680D
:10052000984212D90128064600F03381B0F1005FED
:1005300080F033818700384601F06EFA3A46214652
:1005400007460DF0D1FDC5E900760AAC0DF17C0936
:10055000EB68142B5BD8AE6854F80C7CDEB1B7B1F5
:1005600054F8088C01E03668AEB173689F42FAD146
:100570003A464046B1680DF0D3FD0028F3D10C3463
:10058000A145E5D11DB0BDE8F08F36681EB1736896
:10059000002BFAD1F3E73946714A54F8080C02F0FF
:1005A00091FF6E680746B0FBF6FA06FB1A0A1420A4
:1005B00001F032FA4FF0000B84464FF0010E4CF878
:1005C00004BBEB68804614E907008CE8070032465C
:1005D0006449CDF800E005A803F076F89DF81430E2
:1005E000002B5BD12B68C8F8107053F82A204FEA13
:1005F0008A01002A00F0BC801268C8F8002053F875
:100600002A30C3F80080EB680133EB60B7E754E9A8
:1006100003B8534A5946404602F054FF6E682B68AF
:10062000B0FBF6FA06FB1A0A53F82A300746002BED
:10063000BDD01B681A69BBF1000F14D04146B0460B
:100640001E465B468B46974202D172689A421AD088
:10065000366836B13269B2FBF8F108FB11218A45E0
:10066000F1D06E68A3E7BA4202D15A68002A86D058
:100670001B68002BF5D01A69B2FBF6F106FB1121BD
:100680008A45F0D0EDE71A465846B16803930DF05D
:1006900047FD039B00283FF472AFD9E7069E012E69
:1006A00000F08280B6F1005F77D2B00001F0B4F9BB
:1006B0005946B20082460DF017FD0023A868AB60D2
:1006C00098B19C46DFF8A4E0024613690068B3FBCA
:1006D000F6F106FB11335AF82310A9B1096811602D
:1006E0005AF823301A600028EED128681E4B984231
:1006F00003D06968890001F093F9C5E900A6B7FB4A
:10070000F6FA06FB1A7A6DE7A9681160AA604AF842
:1007100023E0116809B14AF82C209C460028D3D167
:10072000E3E700BF0000DC43A4D0824304E20010F2
:1007300000250020E8E10010A4D0A4437BD492431C
:10074000A4F0F64308E20010E4E10010719DAE430E
:10075000DCE100100000C443ECE10010E0E1001017
:1007600007690FC710250020182500200825002044
:10077000AA68C5F80880C8F800203AB1126968680C
:10078000B2FBF0F600FB162243F82280094A5A50C9
:1007900039E705F11807AC61D5E6B6F1804F01D312
:1007A00002F0DEFE02F0CCFEDFF80CA0C5F818B0B7
:1007B00083E700BF08250020182500204FF4807C27
:1007C0000C4B00B553F8202003EB8003C00082F0EF
:1007D000400200F1804003F5805E02F0C00200F5A7
:1007E000203003F54053CEF800204160C3F800C02C
:1007F00000BD00BF048003400FB400B5084883B0BB
:1008000002F042FE049B3BB105A91846019102F09B
:1008100069FC044802F038FE012002F07BFC00BFB6
:100820000CE2001014E7001070B51646EFF31084C8
:1008300072B6DFF848E0DEE8CF2F0123002AFAD1B4
:10084000CEE8423F002AF6D1BFF35F8F012301F0CB
:10085000070CCA0803FA0CF310F802C01CEA0305DF
:1008600008D14CEA030C00F802C0CEE88F5F84F395
:10087000108870BD3046FFF7BFFF00BFBF260020C5
:10088000044A1078431CDBB2182B28BF10231370C6
:10089000704700BF101D00204FF0E022936843F026
:1008A00000539360704700BF0021044B03F1200206
:1008B000C3E88F1F01339342FAD17047B42600205A
:1008C0004FF0E0234FF08032C3F80024C3F8042433
:1008D000C3F80824C3F80C24C3F81024C3F8142464
:1008E000C3F81824C3F81C24C3F82024C3F8242414
:1008F000C3F82824C3F82C24C3F8302462B6704708
:10090000012300F01F029340400941B1800000F133
:10091000604000F56140C0F8803103607047024AD2
:10092000203042F82030704700E100E008B5EFF3D6
:10093000108E72B6134BD3E8CFCF0122BCF1000F5B
:10094000F9D1C3E84C2FBCF1000FF4D1BFF35F8F96
:100950000D4A10309268DFF834C052F8202062450A
:1009600001D091420BD1084A926842F82010BFF39F
:100970005F8F0022C3E88F2F8EF3108808BD00F030
:1009800077FD00BFBD26002000ED00E01101001042
:10099000014B0B4403607047B426002070B5104C27
:1009A000104DAC420ED2FF26236863B1FFF768FFFB
:1009B00001462046FFF7ECFFA680BFF35F8F0834A7
:1009C000AC42F1D370BDFFF75BFF01462046FFF755
:1009D000DFFF2671BFF35F8F0834AC42E4D370BDF4
:1009E000642300206C23002010490B68EFF3108073
:1009F00072B6D3E8CFCF0122BCF1000FF9D1C3E822
:100A00004C2FBCF1000FF4D1BFF35F8F084A4FF0B9
:100A1000000C1378096801331370C1E88FCF80F39D
:100A2000108840BF00200021704700BF38270020F9
:100A30003D270020000000002DE9F04F2DED028B36
:100A400085B0EFF30583DBB2103B9A0818BF012293
:100A50004FF0010103F0030B18BFA94CA94B08BFCD
:100A6000A94C0BEB820253F8225001FA0BF204F569
:100A700041539FEDA18B02925A602FE0AB8819047D
:100A800040F19480AB79002B40F0DE80B5F908602E
:100A9000002EC0F21C816B6906EB460603EBC60311
:100AA000D3E90267B7F1FF3F08BFB6F1FF3F0ED0B1
:100AB00004EB8B01A36A0A69D21AF31A934205D395
:100AC0000123226A03FA0BF3134200D10E61204680
:100AD00000F076FBB042B941C0F2F980B5F9086088
:100AE000029B002EE363C9DBD5F8149006EB460A9F
:100AF00009EBCA07BB682046D7F80C80019300F0C9
:100B00005FFB019B984271EB0801B7DBB8F1000F66
:100B1000C0F2C080D7E904317C4A934200F0F880EB
:100B20007A88B5F9080092B242EA00409847024636
:100B30000B4652EA030100F0AD80002B80F2CD801D
:100B40000199B1EB020E68EB030839F93A30C7E9B5
:100B500002E8002B92DB686903EB430200EBC20260
:100B6000D2E90271BE4578EB010C4FEA430285DB06
:100B7000AC462CF8083F06E003EB430100EBC10153
:100B80005A00D1E90271BE4578EB01011A4405DB38
:100B900030F9323000EBC20C002BEDDA29F83A3094
:100BA000ACF80060AB8819043FF56CAF2B69EFF32C
:100BB000108272B6D3E8CF0F01210028FAD1C3E822
:100BC000401F0028F6D1BFF35F8F4FF6FF76A8884D
:100BD0000023296900B2AE80C1E88F3F82F31088FC
:100BE0009842FFF64FAF0746A1466E6905F1080827
:100BF000B5F9083007EB470E002BC44606EBCE02D2
:100C000015DBD2E90240AA46019704E036F93530F7
:100C10009446002B09DB03EB430506EBC502D2E942
:100C20000271BC4270EB0101F0DA5546019FACF84D
:100C3000007036F93E7026F83E30002FD8DAAB79D6
:100C40004C46002B3FF422AF0023AB71B5F908608E
:100C5000721C33463BD0686905F1080E03E08E46EE
:100C60005A1C3FF415AF03EB430200EBC2014F885F
:100C70009C463F0430F93230F1D5664581ED028B58
:100C8000EED0AEF800302989664620F83210A5F87B
:100C900008C0E5E739F83A302B812B69EFF3108271
:100CA00072B6D3E8CF0F01210028FAD1C3E8401F64
:100CB0000028F6D1BFF35F8F6B88296929F83A3095
:100CC00000236E80C1E88F3F82F31088D6E640BFD4
:100CD00005B0BDEC028BBDE8F08F20460393019276
:100CE00000F06EFA019A039B10EB020E43EB010831
:100CF0002BE700BFAFF30080FFFFFFFFFFFFFFFF09
:100D000000800B401827002000000B40390A00101B
:100D100008460B69039198470028BBD00399D1E995
:100D2000002306E738B5384B1C692CB1BDE83840C4
:100D30000A213648FFF72CBE0321354800F02EFA71
:100D4000334D314BDD60FFF79BFD324A4FF0504E83
:100D5000024403202C4B4FF00F0C18701A61DEF880
:100D600000204FF6FF715A705A69A3F802C014832D
:100D70004FF00204A2F848404FF00404A2F8784073
:100D80004FF00504A2F890404FF00604A2F8A840E6
:100D90004FF00704A2F8C0404FF00904A2F8F04059
:100DA0004FF00A04A2F808414FF00B04A2F82041CA
:100DB0004FF00C04A2F838414FF0010414864FF0B4
:100DC0000804A2F8D840144C4FF00D0E4FF00E0C52
:100DD0009C6008249980A2F850E1A2F868C1A2F8AA
:100DE000600011800D4A2C620D49D360FFF79EFD13
:100DF00001210320FFF784FD0A4B0A211C640348EC
:100E0000BDE83840FFF7C4BD201D00203827002072
:100E100000000B40B4260020FFFF10001827002020
:100E2000390A001000200B40F0B516461F46026933
:100E30000346EFF3108072B6D2E8CF4F0121002CA9
:100E4000FAD1C2E8441F002CF6D1BFF35F8FB3F98B
:100E500002101D69002945DBD3F814E001EB4102C3
:100E60003EF832400EEBC20C5C800024C5E88F4F88
:100E700080F3108805983546CCF8100006983E4659
:100E8000CCF81400BCF80200CCE902560130C0F3E3
:100E90000E00012838BF0120ACF8020040EA0140F2
:100EA000D3F810C0EFF3108572B6DCE8CF7F0126CF
:100EB000002FFAD1CCE8476F002FF6D1BFF35F8F38
:100EC000B3F804C02EF832C099801A69C2E88F4F77
:100ED00085F3108801211C78DA68A14002F50153DE
:100EE0005960F0BD0023C5E88F3F80F310884FF0B4
:100EF000FF30F0BD03464089B0EB214F3ADD586921
:100F00000A1402EB420210B5D3F810C000EBC20085
:100F1000EFF3108E72B6DCE8CF4F0122002CFAD12D
:100F2000CCE8442F002CF6D1BFF35F8F428889B202
:100F300092B28A4207D000221B69C3E88F2F8EF33A
:100F40001088002010BD6FEA42426FEA5242428090
:100F50000121002218699971C0E88F2F8EF3108843
:100F600093F800C0DA68084602F5015301FA0CF163
:100F7000596010BD002070472DE9F04383B006464C
:100F800000F026F94FF47A7304464FF0FF306FF00B
:100F90000042E6FB0341A04272EB01033ABF044664
:100FA00015460D46A61F45F1FF37B44275EB070302
:100FB0003CBF0026374600F00BF9301A67EB010101
:100FC000012871F1000106DA2046294603B0BDE888
:100FD000F04300F037B900F0FBF8864267EB0101FF
:100FE00000290ADB00211D4B324600931C483B467A
:100FF0000191FFF719FF0130E6D04FF0000E194ABA
:10100000DFF868C01849536A9F4204D8906AB0421A
:10101000DAD29F42D8D1DCF80030EFF3108072B6FC
:10102000D3E8CF9F5FF00108B9F1000FF8D1C3E812
:10103000498FB9F1000FF3D1BFF35F8F0B785FFADF
:1010400083F8DCF80030C3E88FEF80F3108808786D
:10105000804500D120BF20BFD5E700BFE9090010BF
:10106000201D002000000B403D27002038270020D5
:10107000F0B5024685B0EFF30585EDB2002D61D1E4
:101080000B46424CD4E90001994208BF90424AD035
:10109000CDE902233E4BDF681E78384600F090F819
:1010A00006F1040C57F82CC0029A039BACEB000C21
:1010B000101A63EB0101604571F1000133DACDE9EB
:1010C000022300F085F8029A039B824263EB010140
:1010D000002949DB2F492E4800910195CDE90232C4
:1010E000FFF7A2FEDDE90232011E3DDD2A48C4E918
:1010F0000023446A9C4246D3806A904241D32448EC
:10110000CDE90232FFF7F6FE2349029B486A984276
:101110001CD314BF012000208B6A039A934228BF7E
:1011200040F001000CE020BF1B49486A98420DD3F3
:1011300014BF012000208B6A934228BF40F00100B9
:1011400005B0F0BD1448436A8B4202D2002005B0BE
:10115000F0BD14BF01230023816A914234BF1846B9
:1011600043F0010005B0F0BD0B49486A9842EDD349
:10117000C01A18BF01208B6A934228BF40F00100BB
:10118000DEE79C42BBD120BFB9E700BF181D00209D
:10119000201D0020E909001000000B4010B4054B91
:1011A000054C064AA04214BF1846581C10BCFFF755
:1011B0003BBB00BFD426002000800B401CE2001087
:1011C0000346416A0A46986A596A8A42FAD17047C8
:1011D000034B596A0A46986A596A9142FAD1704794
:1011E00000000B4000B58E46154A536A9C46916A32
:1011F000536A6345FAD1401853EB0E034FF00002D7
:1012000028BF0122BAB10E4B5A6A531C08BF1046C0
:1012100008D04FF0FF33184609494A6A9A42FCD376
:101220009A4207D1064B02E0596A914202D1996A6B
:101230008142F9D300BD024A526A9342ECD8EFE7EB
:1012400000000B40074A536A9942FCD8994207D1E3
:10125000044B02E05A6A914202D19A6A9042F9D84C
:10126000704700BF00000B4000EB400C4FEA8C0CB5
:101270000CF1804C0CF5803C70B51E46DCF8043057
:10128000041FB3F5803F38BF4FF48033E4B238BF5A
:10129000CCF80430012C2ED94FF40065284B0CF506
:1012A000405ECEF8005053F820E0BEF1000F17D199
:1012B000DCF800E0012C8EEA421202F0E0020CF5AC
:1012C000805ECEF800202BD94FF4006143F82060F7
:1012D0004FF480330CF500521160CCF8043070BD2F
:1012E0005D69B5FBFEFE0EF1010E0EEB4E0EBEF17A
:1012F000030EFCD2DCE70129CED103240CF54053C8
:101300001C60DCF80830DB07FBD5DCF800300CF59E
:10131000805E83EA421303F0E003CEF80030084B0E
:101320000122DCF800404C4004F00304CEF80040F9
:1013300002FA01F1DCF808200A42FBD0C4E700BF42
:10134000D8260020014B53F820007047D8260020F3
:1013500010B5029C8E464FEA043C4CEA034C1C4BF1
:10136000B3FBF1F30168B2FBF3F4002920DB194A67
:10137000194B904214BF4FF480424FF4004217497A
:101380001A6003F580531A608B6832EA0303FBD1BD
:10139000212200F540530433C0F800E084601A6055
:1013A0000268002AFCDA0822C0F80CC01A6010BDDE
:1013B000036803F03F037345D9D18368C3F30B037C
:1013C000A342D4D1C36803F4EE236345CFD110BD4B
:1013D000001BB700008005400020024000000240D2
:1013E000012300EB4000800000F1804000F58410F4
:1013F00041600360704700BF0023DB8A002242E89F
:1014000000F2520201D4102118470421184700BFEE
:10141000034AD2F82838002BFBD0BFF35F8F704708
:1014200000000E400021044B044ABFF35F8F43F8D5
:10143000041B9342F9D170470C080E402C080E4053
:101440004FF42A6C4FF48D70054A064B0649C2F8DA
:1014500000C0D06019605368002BFCDA704700BFF1
:101460000080044000A0044000B0FA00704700BFB4
:1014700008B50148FFF7C0F940E2001038B5054C47
:10148000054DAC4204D254F8043B9847AC42FAD321
:1014900038BD00BF60E10010A0E100100648DFF891
:1014A00028C0064B064A0749C0F800C01A608B687E
:1014B00032EA0303FBD170470020024000300240B3
:1014C000F6FFF303000002407F3BEFEF044BDB6CC1
:1014D000B3F5004F03D14FF48022024BDA6470471A
:1014E00000001150002011504FF0E022044BD2F8C0
:1014F000881D0B43C2F8883D10EE3004704700BFD2
:10150000030330006FF06041044B054A1960936893
:10151000DB4333F06043FAD1704700BF0030024034
:101520000000024010B545F25320FFF765FFBDE80B
:10153000104003460420184710B545F25320FFF72A
:101540005BFFBDE81040034601201847FFF7ACB928
:101550001349144B70B55C1AA508442D2A4628BFC0
:101560004422114E920030460CF0EAFD432D13D870
:101570000E4A0FD0C5F144003319410803EBC101F5
:10158000C3E9002208338B42FAD1C30704D520F007
:101590000100054446F82520054B9E6070BD00BF44
:1015A00000000010100100100000002011010010C8
:1015B00000ED00E0002370B52B4C82B0C4F88430FD
:1015C000FFF73EFF0122294BDA63636C012BFCD14C
:1015D0000321264A244B11639C6B012CFCD102266B
:1015E000052521460523224A22480096FFF7B0FE32
:1015F00021462B46204A21480095FFF7A9FE0022EC
:10160000042031461E4BFFF72FFE214628460022BC
:101610001C4BFFF729FE0022082011461A4BFFF74A
:1016200023FE002209201146174BFFF71DFE002262
:1016300006201146134BFFF717FE0022114B07201F
:101640001146FFF711FE0420FFF77CFE00240F4B2C
:10165000A3FB0035AD0CE0B229460134FFF7C0FE14
:10166000062CF8D102B070BD0000014000300140EE
:10167000002F685900000540008C86470080054017
:10168000001BB70080D1F008006CDC0283DE1B4336
:10169000C1F30A530A4673B3A3F2FF33002B24DBD2
:1016A000332B2CDC10B54FF0010E8446C3F134010E
:1016B000C3F11400143B0EFA01F12EFA03F30EFAF3
:1016C00000F018434B1E40F1FF3403EAE27313EBC2
:1016D0000C0E04EAE27342EB03024B4260EB400C57
:1016E00002EA0C010EEA030010BD00294FF00000D1
:1016F00006DA04497047184601F000417047704708
:10170000002170470000F0BF86B003B451FC08040C
:10171000CDE9020151FC0904CDE9040151EC0A04B0
:10172000CDE9060103BCF047BDE800504EEC00C413
:10173000BDE800504EEC01C4BDE800504EEC02C4C0
:1017400000BD000000B5FFF7DFFF02E010FE30F43F
:10175000F8D441EC100443EC112400EE010410EE27
:10176000010480EE200451EC1004704700B5FFF72F
:10177000CBFF02E010FE30F4F8D441EC100443EC4F
:10178000112400EE010410EE210480EE200451EC3F
:101790003004704700B5FFF7B7FF02E010FE30F4E9
:1017A000F8D410B541EC100443EC112451EC0404BE
:1017B00053EC0524A0FB024C5FF0000EE0FB03CECF
:1017C000E1FB02CE4CEC20440024E1FB03E444ECBA
:1017D00030E480EE200451EC500410BD00B5FFF75A
:1017E00093FF02E010FE30F4F8D441EC100443EC17
:1017F000112451EC2104A0FB01126FEA820252FB7A
:10180000100052FB12F252FB1000A0EBD07C53EC04
:1018100004245CFB13F153EC1524A1FB022001FB13
:10182000030053EC4424A2EB000050FB1CF24FEAEF
:10183000111312EB017043EBE27140EA515020EAC0
:10184000915020F0070053EC7524A0FB023C53ECB0
:10185000752400FB03CC01FB02CC53EC0424ACEB5D
:10186000824C40EA5C70A0F1010041EC400480EE43
:10187000200451EC7004704700B5FFF745FF02E00B
:1018800010FE30F4F8D440EC700400EE010410EEC9
:10189000210480EE200451EC3004704700B5FFF7BE
:1018A00033FF02E010FE30F4F8D440EC600400EEA8
:1018B000010410EE210480EE200451EC3004704746
:1018C00000B5FFF721FF02E010FE30F4F8D441EC40
:1018D000800400EE010410EE010480EE400410EEDE
:1018E0001304704700B5FFF70FFF02E010FE30F45D
:1018F000F8D441EC800400EE010410EE010480EE07
:10190000400410EE3304704700B5FFF7FDFE02E01F
:1019100010FE30F4F8D441EC100443EC112400EE36
:10192000010410EE3004C0F30070704700B5FFF7FB
:10193000EBFE02E010FE30F4F8D443EC102441EC4E
:10194000110400EE010410EE30F48CBF01200020E1
:10195000704700BF00B5FFF7D7FE02E010FE30F47D
:10196000F8D443EC102441EC110400EE010410EE15
:1019700030F42CBF01200020704700BF00B5FFF7F6
:10198000C3FE02E010FE30F4F8D441EC100443EC46
:10199000112400EE010410EE30F42CBF01200020D1
:1019A000704700BF00B5FFF7AFFE02E010FE30F455
:1019B000F8D441EC100443EC112400EE010410EEC5
:1019C00030F48CBF01200020704700BF10B50446E2
:1019D0000AF0A4FB20B1044A0319934200D810BDB9
:1019E0000248FEF709FF00BF000008204CE200108B
:1019F00010B50C460AF00AFF20B1044A03199342BD
:101A000000D810BD0248FEF7F7FE00BF0000082016
:101A10004CE200100AF08ABBFFF7D8BFFFF7FABF0D
:101A2000FFF7F8BF9A4238BF88547047704700BF2D
:101A30002DE9F04F83B00F461146DDE90EB2920753
:101A40009846DDE90C93064629D00D469BB109EB7B
:101A5000030405EB040A01950D460D93AAEB04025D
:101A600014F8010D43463946B047A145F6D1294641
:101A70000D9B019D1D440F9B9B070CD56C1AA34524
:101A800009D92A464346394620200134B0475C45EF
:101A900005F10105F5D3284603B0BDE8F08F5B459D
:101AA00015D28A461C468946ABEB03050D445246C7
:101AB0004346394620200AF1010AB047AA45F6D12B
:101AC00049462346DDF83090002CC0D1E3E70D46AF
:101AD000002BBCD1DFE700BF2DE9F04F0F460F9977
:101AE00006469DF82C008D079046DDE90CA299462C
:101AF0008346099CDDF828C00E9B49D4002B42D1B7
:101B0000944545D201F0010504F1FF3E3020E64442
:101B100005E00CF1010C62450EF8010F02D9BCF191
:101B2000200FF6D1002D00F08780634530D9601E6C
:101B30004FF0300E604405E00CF1010C9C4500F8BC
:101B400001EF25D0BCF1200FF6D1CD060ED548050A
:101B500051D4624564D0634562D0BAF1100F4DD0C4
:101B6000BAF1020F55D0BCF1200F2DD12022CDE9C2
:101B70000B310A924B464246394630460994BDE83D
:101B8000F04FFFF755BF11F001052ED19445BBD39F
:101B9000CD061ED54805E0D4BCF1000FD9D1BAF16D
:101BA000100F5FD0BAF1020F74D030224FF0010C49
:101BB0002270BBF1000F12D1480742D52B2204F846
:101BC0000C200CF10102D2E762460CF1010C30202E
:101BD000A054BCF1200FC9D0BBF1000FECD02D22D6
:101BE00004F80C200CF10102C1E798B3944503F10D
:101BF000FF3389D399E7BAF1100FB7D18D063DD5E0
:101C0000BCF1200FB2D0582204F80C200CF1010CCA
:101C1000A9E7BCF1200FA9D062460CF1010C08E045
:101C2000BCF10102BBD0BAF1100F35D0BAF1020FEE
:101C3000CDD16220A05496E7CD06CAD5480588D5F7
:101C40008BE70A0749BF2022624604F80C200CF1FA
:101C500001028CE711F00C0F00D0013B9445FFF41A
:101C600053AF62E78A0613D47822227030224FF0F5
:101C7000020C6270BBF1000F9ED0B0E7BCF1200FE8
:101C80003FF474AF782204F80C200CF1010C6AE7E1
:101C90005822EAE76222E8E78D06ACF1020004D59B
:101CA0004FF0580E04F800E091E74FF0780E04F87A
:101CB00000E08CE700B9704701F0A4BB0000000011
:101CC0002DE9F04F97B09DED207BDDE9225B80464A
:101CD000894651EC170B9A46249B0C9207930246B7
:101CE0000B468DED047BFFF713FE002840F0E381E7
:101CF000DDE904014FF0FF326FF48013FFF71AFEA5
:101D0000002840F0CB80DDE904014FF0FF32B24BF8
:101D1000FFF74CFE002840F09F80DDE90467AAA38E
:101D2000D3E9002330463946FFF740FE002840F053
:101D30008280A7A3D3E9002330463946FFF7FAFD96
:101D4000002878D13046394600220023FFF7F2FD03
:101D5000002840F098800D90079B302113F4806F8D
:101D600008BF06250EAA2B46A5F1200605E0013B7B
:101D7000B34202F8011B00F06581092BF7D81E461B
:101D8000ED1ADDE90401FFF79FFD944B044603EBD8
:101D9000C60393ED007B8DED087BFFF771FD0246D6
:101DA0000B46DDE90401FFF7E5FCDDE90823FFF759
:101DB000F5FCCDE90A01FFF799FD0746FFF772FD33
:101DC00002460B46DDE90A01FFF7D4FC0022844BF2
:101DD000CDE90A01FFF7EAFD002800F0888001370D
:101DE0003846FFF75FFD02460B46DDE90801FFF7C5
:101DF000B5FD08B100270134002E00F088800DF1F8
:101E00003703DFF8F0C158190DE0ACFB0721C90812
:101E100001EB8102A7EB42023032092F00F8012FBB
:101E200040F2FB800F46202D06F1FF3605F101053B
:101E3000EBD1202586E0079B9DED047BCDE923B304
:101E40004946534640460C9A8DED207B229517B0AB
:101E5000BDE8F04F00F080B9079B494658074CBFDA
:101E600004230323404621935346079A48BF5D4C01
:101E7000CDE922B258BF5C4C0C9A209417B0BDE853
:101E8000F04FFFF7D5BD3B46324600200021FFF75B
:101E900071FC0123CDE904010D935DE7079B03F07D
:101EA00002029C07049200F0F4800C9F3D464F4EC6
:101EB000341D14F8010D2A4653464946C047A64230
:101EC00005F10105F5D1049B3C1D63B10C9D631B1D
:101ED0009B4508D922465346494620200134C04735
:101EE000631B9B45F6D8204617B0BDE8F08F002253
:101EF000DDE90A013A4BFFF71DFD00287FF47CAFB6
:101F0000002F40F0C2800137002E7FF478AF2046CA
:101F1000FFF7B6FC02460B46DDE90401FFF72AFC99
:101F200000222F4B06460F46FFF704FD40B930460E
:101F3000394600222A4BFFF739FD002800F0A18026
:101F40000DF137032A4859190EE080FB0476C2EBE5
:101F5000A60202EB8206A4EB460630361446013593
:101F600001F8016F002A47D0202D4FEAE472ECD12E
:101F7000079A02F00302012A14D1BBF1000F11D01D
:101F80000D9A002A60D00BF1FF3BBBF1200F09D95D
:101F900030222B4404E001355D4503F8012F31D296
:101FA000202DF8D1079B0EACCDE902B30094534627
:101FB000494640460C9A0195FFF73AFD04462046F3
:101FC00017B0BDE8F08F00BF0000000065CDCD4127
:101FD0000000000065CDCDC1FFFFEF7FA0ED001038
:101FE0000000E03F98E20010A0E20010A8E200101C
:101FF00067666666CDCCCCCC079A02F00302012A54
:1020000000F09680202DCDD00D9B3BB32D220DEB03
:10201000050383F838200135C4E7202D3FF409AFCC
:1020200030212E445A1905E00135202D02F8011FF8
:102030003FF4FFAEAE42F7D12E226E44013586F852
:1020400038207FE720259CE6079A12F00C0F5AD023
:102050000BF1FF3BAB459BD8202DA3D0079B5A0724
:1020600006D52B220DEB050383F83820013599E7BF
:102070001B0797D520220DEB050383F83820013587
:1020800090E7013424F001045AE7F9077FF5B4AE74
:1020900039E7BBF1040F7FF608AF0C9B1D46043BEC
:1020A00003EB0B072A465346494620200135C0471B
:1020B000AF42F7D1FAE6079B03F002029D070492B4
:1020C00025D00C9F3D46224EF41C14F8010D2A46E3
:1020D00053464946C047A64205F10105F5D1049B88
:1020E000FC1C002B3FF4FFAE0C9D631B9B457FF651
:1020F000FAAE22465346494620200134C047631BAE
:102100009B45F6D8EFE6AB453FF642AF4AE7BBF159
:10211000030FD6D90C9B1D46033B03EB0B072A4646
:102120005346494620200135C047BD42F7D1C9E793
:10213000BBF1000F3FF466AF0D9A002A84D00BF17B
:10214000FF3B5D45FFF424AF202D7FF45FAF29E70F
:10215000A4E20010000000002DE9F04F9FB01E46E1
:10216000DDE928ABDDE92B982A9B04460D460B924E
:102170000A9352465B4650465946FFF7C9FB002872
:1021800040F0C680504659464FF0FF327B4BFFF778
:102190000DFC002840F0BC80504659464FF0FF32FD
:1021A0006FF48013FFF7C6FB002840F0B180504663
:1021B000594600220023FFF7BDFB002840F0DD81D7
:1021C000CDE908ABDDE9081218F480600B460F4634
:1021D00008F400610C921491159040F0A88013430C
:1021E00040F0D080002940F0EC8106230A9318F0DB
:1021F0000202109240F0DD814B46042B38BF0423CD
:102200000E920422043B1292149350465946002227
:102210000023FFF78FFB002840F02A829DED087B0A
:10222000149B0B9A03930A9B8DED007B029328F479
:1022300000630493294633462046FFF741FD0246DA
:1022400018F0200F334629460CBF6520452002F1C7
:102250000108A047129B0DF1580A03F1FF3B0E9BAA
:10226000002283EAE37C5046DFF814E10B9FACEBDD
:10227000E37CD90FCDF8208002E0202AC44610D09C
:10228000AEFB0C384FEAD80808EB8803ACEB4303ED
:1022900001303033BCF1090F02F1010200F8013CBA
:1022A000EBD805234FF0000C06930A23DDF82080BD
:1022B000CDE90121CDE9033CCDF800A033464246EB
:1022C00029462046CDF814B0FFF706FC109B824645
:1022D000D3B1A0EB0708C14516D907EB0802334676
:1022E0002946202008F10108A047C145F5D87B1EEA
:1022F0004B44C7F10102A3EB0A035244914538BF96
:1023000000230AF1010A9A4450461FB0BDE8F08F3D
:10231000334629462046CDE928AB0A9CCDE92B98C7
:102320000B9A2A941FB0BDE8F04FFFF7C9BC57EADB
:10233000020329D100293FF45AAF00230E930A9BD0
:102340000E9A934200F3BA81002750465946002264
:102350000023FFF7EFFA002840F015819DED087B80
:1023600028F4006343F480632C938DED287B33467F
:1023700029462046CDE92A790B9AD3E7FFFFEF7F64
:10238000CDCCCCCC06230A930C9BC3F30A50A0F20D
:10239000FF30FFF775FAB2A3D3E90023FFF7FEF988
:1023A000B1A3D3E90023FFF7D1F90C9BCDE90E01CE
:1023B000C3F3130343F07F5138460022A24B41F48C
:1023C0004011FFF7D7F994A3D3E90023FFF7E6F90B
:1023D00002460B46DDE90E01FFF7B8F9FFF774FA84
:1023E0000E90FFF74DFA8EA3D3E90023CDE90C013F
:1023F000FFF7D4F90022954BFFF7A8F9FFF764FA2D
:1024000089A3D3E900230746DDE90C01FFF7C6F9EC
:10241000CDE90C013846FFF733FA85A3D3E9002351
:10242000FFF7BCF902460B46DDE90C01FFF7A2F904
:1024300002460B46CDE90C23FFF7B0F9CDE91001B8
:10244000DDE90C0102460B46FFF780F90022CDE9D9
:102450001201DDE910017E4BFFF7C4F900227D4B2C
:10246000FFF774F902460B46DDE91001FFF7BAF9F0
:102470000022794BFFF76AF902460B46DDE91001AD
:10248000FFF7B0F9CDE91001DDE90C2300204FF092
:102490008041FFF76FF902460B46DDE91001FFF7B7
:1024A00055F902460B46DDE91201FFF79BF90022C0
:1024B0006A4BFFF74BF907F2FF3C00224FEA0C533F
:1024C000FFF76CF902460B46DDE90801CDE90C2364
:1024D000FFF730FA50B1DDE90C010E9B0022013B01
:1024E0000E935C4BFFF77EF9CDE90C01DDE90C01A1
:1024F0000E9B02466333C62B08F002031093149B15
:102500002DD8002B5FD0042312930A433FF417AF5A
:10251000DDE9080148A3D3E90023FFF733FA48B106
:10252000DDE9080146A3D3E90023FFF703FA0028F9
:102530007FF405AF0A9B002B51D0159A002A00F0BA
:10254000AC80013B0A93129B994505D9109B002B47
:1025500000F0AF80022310930023149344E02BBBC0
:10256000B9F1050F4FD908F00203002B49D105231B
:102570001293A9F1050314933AE00BF10043CDF84F
:1025800020A009931EE628F4006343F480632046EC
:10259000CDE92A792C933346DDE90867344629468C
:1025A00007F10045CDE928450B9ABBE605231293B8
:1025B000ABE70222002310920422149312920E938E
:1025C00023E60527C1E6B9F1040F1FD9109B002BA4
:1025D00077D104231293A9F10403149304E0129B0E
:1025E00099455FD80A9B14930E9B002B3FF40DAEC8
:1025F000DDE90801DDE90C23FFF7F4F8CDE9080176
:1026000003E60223109305231293F1E704231293A8
:10261000EAE700BFAFF3008061436F63A787D23F53
:1026200071A379094F930A401655B5BBB16B0240AF
:10263000EF39FAFE422EE63F2D431CEBE2361A3FFD
:102640000000000080842E410000F83F0000E03FC1
:1026500000002C4000002440000018400000F03F23
:10266000FB799F501344D33FB3C8608B288AC63F81
:10267000149BDDE908A703930A9B07F1004B029323
:1026800028F400630B9A0493294633462046CDE98B
:1026900000ABFFF715FB0246D2E5129B994515D812
:1026A0001492A1E7109B23B10A9B14930223109369
:1026B0009AE7129BA9EB0303149395E79B1A5F1EFD
:1026C00043E604231293022310938DE7109B002B03
:1026D000EFD002231492109386E700BF2DE9F04F4C
:1026E00091469A4C9A4AB1F1000A9BB018BF8346B2
:1026F00014601878974ADDF8908008BF9346002848
:1027000000F08A821D460026CDF8209008E032466F
:102710005146089BD84701362878002800F0C7802A
:10272000252805F10105F2D100222B4613F8011BE3
:10273000A1F1200010280AD8DFE800F03F09093B8A
:102740000909090909090937093309092F00A1F104
:102750003000092840F289802A2900F0E98000240D
:102760002E2900F094800027A1F1680012282CD8AF
:10277000DFE810F04E012B0049012B0040012B0037
:102780002B002B002B002B002B002B0027002B00F5
:102790002B002B002B002B0027001D4642F00102CE
:1027A000C3E71D4642F00202BFE71D4642F00402A5
:1027B000BBE71D4642F01002B7E71D4642F0080293
:1027C000B3E7697842F48072013367291D467ED8E9
:1027D000242940F2B880A1F12503422B00F2B380F6
:1027E000DFE813F05101B100B100B100B100B10058
:1027F000B100B100B100B100B100B100B100B10051
:10280000B100B100B100B100B100B100B100B10040
:10281000B100B100B100B100B100B100B100B10030
:10282000B100B1001E013A011E01B100B100B100BA
:10283000B100B100B100B100B100B100B100B10010
:10284000B100B100B100B100B100B401B100B100FC
:10285000B100B100B100B100B100B100B100B401EC
:102860005801B4011E013A011E01002404EB840446
:1028700001EB440419781D46A1F130000928A4F1A8
:10288000300403F10103F1D92E297FF46CAF69788C
:102890001846A1F13007092F42F4806240F22581E9
:1028A0002A2900F032811D46002701335CE73446B7
:1028B000DDF82090B14501D809F1FF364B4632468C
:1028C00051460020D84720461BB0BDE8F08FA1F14B
:1028D0006903DBB20F2B36D8012049F2410C984036
:1028E00010EA0C0040F0F4800A2B35D0072B2AD1D7
:1028F00058F8041B002940F0108122F0100412F453
:10290000806144F0210400F00A8112AA0823059393
:102910001023CDE900203246069404970393002348
:10292000029351465846089BFFF7D6F80646F3E651
:1029300058F8044B6978002C1D46BCBF42F00202D7
:10294000644201330CE70846E1E600BFDD260010D3
:10295000142700202D1A001058F8049B002F99F816
:10296000000014BF3B464FF0FF33002800F0828385
:10297000494603EB090C04E011F8013F002B00F07D
:1029800043818C45F8D1ACEB0901530540F120811E
:10299000B94228BF394612F0020300F083820223B5
:1029A000CDE9094832468846089C37440B9307E036
:1029B00023465146D84719F8010F013610B1324667
:1029C000B742F5D10B9B4146099CDDF82880002BCE
:1029D0003FF4A2AE37468C427FF69EAE2644089C5A
:1029E000761A3A462346514620200137D847B74247
:1029F000F7D191E669786C297FF4E4AEA97842F4C6
:102A00004072EB1CE1E6697842F400720133DCE6C7
:102A10006978682900F0FB8042F080020133D4E637
:102A2000672900F0C980472900F0CD80452900F0D2
:102A3000CC80CDE9034208F10708029728F0070887
:102A40003246F8E802675146CDE900675846089BD0
:102A5000FFF782FB06465FE6462908BF42F02002E8
:102A6000CDE9034208F10708029728F0070832462B
:102A7000F8E802675146CDE900675846089BFFF722
:102A80001FF9064648E6324651462520089BD8479E
:102A9000013641E608F104039207099306F10107A4
:102AA00040F1C3803246514698F80000089BD84751
:102AB000012C40F2B4812644089C3A4623465146F4
:102AC00020200137D847B742F7D1DDF8248023E62C
:102AD0006F2974D040F24182782900F086814FF04E
:102AE0000A0922F010024B4638E0002707EB87075F
:102AF00001EB4701A1F1300710F8011FA1F13003EC
:102B0000092BF3D90546431C2EE658F8047BA97817
:102B100002356B1C27EAE77726E642F0210412AA69
:102B2000944602E020283FF4F1AE01F00F03092B98
:102B300094BF303337330F298CF8003000F1010097
:102B40000CF1010C4FEA1111ECD8DFE6582966D0E0
:102B5000622940F089804FF002094B4612F4806CE4
:102B600000F0D48022F00D02099212F4007140F0BE
:102B70007B8112F4807008F1040940F0388251061C
:102B800040F13A8198F80010002940F04A81099AF2
:102B900022F010020992BCF1000F00F042810846B9
:102BA00012AA0999CDE90337CDE905410190002327
:102BB000009202933246A1E042F4006239E74FF0FE
:102BC00008094B46CAE742F4006242F0200230E7AF
:102BD00012F0020300F08C810223CDE909481F4660
:102BE0008846089C324623465146D84719F8010FBB
:102BF00001360028F6D13B464146099CDDF8288085
:102C0000002B3FF489ADE5E6A1EB0901BDE6A9780B
:102C100042F0C002EB1CD8E5044606464AE64FF0F7
:102C2000100942F020024B4698E7012C40F2F18057
:102C3000374606F1FF39CDF82880DDF82080A14421
:102C40003A464346514620200137D8474F45F7D1F1
:102C5000DDF828803A4698F800005146089BD8478E
:102C60002644DDF8248057E512F4806300F0C1802B
:102C70004FF4806322F0110010F4007E4AD110F46A
:102C8000807C08F1040940F03781410600F1A980F9
:102C9000020640F1E381B8F9002082EAE271A1EB7B
:102CA000E2711FFA81FED10F0991002A00F05F81C5
:102CB000734612AA9646DFF8A0830A9403E0BCF19B
:102CC000200F23460FD0A8FB0314E40804EB840173
:102CD000A3EB41010EF1010E3031092B0CF1010C77
:102CE0000EF8011CEBD80A9C099B0092CDE901C3A8
:102CF0000A233246CDE905400497039351465846CE
:102D0000089BFEF7E9FEC846064605E522F00C02E0
:102D100009922AE708F1070828F00708D8F80420E4
:102D200058F808CBD10F5CEA020E6CD0002A63463B
:102D300002DA5B4262EB42029146099312AA944680
:102D40004FF0000ECDE90A18CDE90C470E960F9210
:102D500003E0BEF1200F3B4630D04FF0CC3213EBF6
:102D60000901BD4F41F10001A7FB014626F0030414
:102D700004EB9604091B5C1A02FB04F63A4669F15F
:102D8000000802FB08660522A4FB077407F001088F
:102D90002644A8FB024864180A2B0CF1010C4FEAE8
:102DA000570704F1300479F100090EF1010E0CF817
:102DB000014C47EAC6774FEA5609CAD27346DDE9A5
:102DC0000A18DDE90C470E9E0F9ACDF824E0CDE9F4
:102DD00001310A230092CDE905403246049703935E
:102DE0009FE598F8002096465DE74FF010094B46A6
:102DF000B4E622F010003FE711064CBFB8F800100F
:102E0000D8F80010C0E6002B40F0428199460993A3
:102E100094E73246514698F80000089BD8473E4652
:102E200053E6099A0A9412F0200F14BF4FF041089C
:102E30004FF0610812AA9446A8F10A0802E020287F
:102E400071460FD0B1FBF3FE03FB1E14092C94BF97
:102E50003034444499428CF8004000F101000CF1F8
:102E6000010CECD20A9C9CE608F1070828F0070840
:102E7000D8F8042058F8081B0A920A438E467BD1E2
:102E8000099A22F010020992BCF1000F74D00020C0
:102E900012AA0999CDE90020CDE905413246CDE9D4
:102EA00003373CE58C4298BF01317FF679AD4FF492
:102EB0008063CDE909949946A2190B97089F541A8B
:102EC00032463B46514620200136D847A642F7D12C
:102ED000DDE90A474B46DDF8249099F80000002808
:102EE0003FF41AAC611C002B3FF477AE002357E58A
:102EF0008C42DED8013170E6D8F80020D10F002ACC
:102F000000F0B38082EAE273A3EBE27312AA944664
:102F1000CDE90914DFF8408103E0BEF1200F23461C
:102F20000FD0A8FB0314E40804EB8401A3EB4101D8
:102F30000CF1010C3031092B0EF1010E0CF8011CC3
:102F4000EBD8DDE909140A230092CDE905403246A9
:102F5000CDE901E104970393D0E6692922F010003E
:102F600040F0918012F480633FF486AE80E6002B3F
:102F70003FF49FAE12AAB7E6099ACDE90B8412F08E
:102F8000200F14BF41216121CDE90D76CDE90F3B22
:102F9000CDF844A00027F0460A9C12AE0DF1480B74
:102FA000A1F10A0A03E0202F80460C4613D02146E7
:102FB0004A46002340460BF0A7F8D2B2092A94BF34
:102FC00030325244C84574F10004327007F10107F1
:102FD00006F10106E7D23846DDE90B845A460E9E1B
:102FE0000D9F0F9BDDF844A0DDF840B051E7D8F805
:102FF00000E0BEF1000F0DD122F010020992BCF1E9
:10300000000F07D012AA0998CDE90337CDE9054092
:103010000191CCE5099A12F0200F14BF41206120E4
:1030200012AA94460A92A0F10A0202E02029C6469A
:103030000FD0BEFBF3F803FB18E0092894BF303033
:1030400080189E458CF8000001F101010CF1010C83
:10305000ECD20A9AD7E700BFCDCCCCCCD8F8002070
:1030600082EAE27EAEEBE27E1DE6002B3FF44EAF3D
:1030700012AA68E712F480610ED012F0020114D097
:1030800001463746A7E44FF00A0902464B4665E57C
:10309000002312AA09939AE612F002037FF49AAC75
:1030A000002C7FF406AFFFF737BB002C7FF4FFAE98
:1030B000FFF732BB0EB400B584B00DF1140C5CF810
:1030C000043B01464FF0FF32CDF800C00448CDF874
:1030D0000CC0FFF703FB04B05DF804EB03B07047CE
:1030E000251A001010B5094A84B014684CB1034683
:1030F00000914FF0FF3203A90548A047012004B01A
:1031000010BD00F0C1F9204604B010BD1427002006
:10311000B51C001000BEFDE7704700BF074A03461C
:10312000106838B1064903448B428CBF4FF0FF3022
:1031300013607047034908461160F3E70C2700202D
:103140000000082040270020002070474FF0FF308B
:10315000704700BF38B9DFF814C008461146DCE9F3
:10316000002300F017B94FF0FF30704740ED00101A
:10317000431E012B09D810B514460846012300222E
:10318000214600F091F8204610BD4FF0FF30704707
:103190004FF0FF30704700BF4FF0FF30704700BF67
:1031A0004FF0FF30704700BF02288CBF0020012085
:1031B000704700BF08B5FFF7ADFF00BF38B5064C3C
:1031C000064DFEF75BF9AC4204D254F8043B984735
:1031D000AC42FAD338BD00BFA0E10010A8E1001056
:1031E000036808461146184770B505460846697DCC
:1031F00082B000294FD0002A25DD037814460A2B1F
:10320000064622D0012C4FF0000E0DD0324601238D
:1032100012F801CF1946BCF10A0F03F1010320D0C7
:103220009C42F5D1744505DD2B68A4EB0E0106EB3D
:103230000E009847311911F8013CA3F10D03B3FAC0
:1032400083F35B092B7502B070BD2B7D002BD9D1A8
:1032500002212B6813489847012CEBD04FF0010E48
:10326000D4E712F8010C0D28DAD08E4506EB0E00DB
:10327000A1EB0E0105DACDE900322B689847DDE9B4
:103280000032CDE9003202212B6806489847009BA6
:10329000019A9E46C4E711462B6802B0BDE8704013
:1032A000184700BFF0ED00102DE9F04782B09046BE
:1032B0001C460D460746FDF78BFF4FF0FF3C6FF0B5
:1032C00000462E4A821841F10003944576EB030133
:1032D0003CBF624633462A480AF026FF6B1C8246F2
:1032E00040D00CB3274E284B1C68B4B1B8F1000F86
:1032F0001CD1DFF89C8001E0246974B12368002BA5
:10330000FAD0D8F800300BB19C42F5D120462A46BD
:103310003946B0472469002CF0D1BAF1000F26D10C
:10332000284602B0BDE8F087184EDCE74FF00A09E6
:10333000DFF85C8002E02469002CEED02368002BCB
:10334000F9D0D8F800300BB1A342F4D12A4639465F
:103350002046B047012220460DF107018DF8079065
:10336000B047E8E738460AF001F80546B9E70448EF
:103370000AF0EEFE284602B0BDE8F08740420F009A
:1033800064230020E931001000270020E131001003
:10339000082700202DE9F84F06460D46934699462A
:1033A000DFF85880DFF858A0134FD8F8004014B960
:1033B00010E0246974B1DAF800300BB1A342F8D1FF
:1033C000A368002BF5D02946304698470028F0DD49
:1033D000BDE8F88F7B6A994508D8BA6A5A4503D385
:1033E0006FF00100BDE8F88F9945F9D10120002167
:1033F000FDF7F8FED9E700BF00000B4000270020D2
:1034000008270020F0B583B006468DF80700FDF7C9
:10341000DFFE4FF0FF356FF00044174A821841F18C
:103420000003954274EB03013CBF23462A46134830
:103430000AF07AFE124B07461C689CB1114D01E060
:1034400024697CB12368002BFAD02B680BB19C4215
:10345000F6D1204601220DF10701FFF7C5FE2469D0
:10346000002CEFD117B9304603B0F0BD03480AF085
:103470006FFE304603B0F0BD40420F0064230020D1
:10348000002700200827002038B5044609F06EFF09
:10349000012305461A4620462946FFF705FF084B3B
:1034A0001C682CB163682BB198472469002CF9D1B2
:1034B000284638BD2469002CF4D1284638BD00BF09
:1034C00000270020032982EA010230B5044608469D
:1034D0001AD94FEA910EA44618490EF1FF3504EBB4
:1034E0008E0E5CF8043B01FB02F201FB03F3F44592
:1034F00083EA136301FB03F382EA0302F1D104348C
:1035000000F0030004EB850402280ED0032809D044
:1035100001280DD082EA5232084802FB00F080EA0E
:10352000D03030BDA37882EA0342637882EA032276
:103530002178024B4A4003FB02F2EBE795E9D15BAD
:1035400008B5042000F002FA024B034A0349036065
:1035500000F082FF2CF20010F137001018F200107A
:1035600008B5042000F0F2F9024B034A0349036056
:1035700000F072FF68F200102938001054F20010B9
:1035800038B50546082000F0E1F90446294601F067
:10359000B3F9054A2046054900F05EFF204600F0D9
:1035A000EDF900F073FA00BF614700109CF30010C2
:1035B00038B50546082000F0C9F90446294601F04F
:1035C000DDF9054A2046054900F046FF204600F097
:1035D000D5F900F05BFA00BFA1470010BCF3001062
:1035E00038B50546082000F0B1F90446294601F037
:1035F000CFF9054A2046054900F02EFF204600F08D
:10360000BDF900F043FA00BFE1470010DCF3001001
:103610000D29F8B5044603D8A1BB01252846F8BDFD
:10362000F92325485A10002B00EB820CA3EB020370
:103630000DDD50F82250013B8D4221D25A100CF181
:103640000400002B00EB820CA3EB0203F1DC1B4B0C
:10365000056898422DD02846FEF724F906460F4605
:1036600020680AF079FD02460B4630463946FEF7DF
:1036700095F8FEF70DF8FEF739F960602846F8BDB9
:103680001346CFE70E4B5D5C2846FEF7F9F8064679
:103690000F4620680AF060FD02460B463046394668
:1036A000FEF77CF8FDF7F4FFFEF720F9606028468E
:1036B000F8BD4FF0FF30E0E71CEE001000F2001004
:1036C000F4ED0010000000002DE9F04782B00D4637
:1036D00004460A9958186B68984208D990466BB905
:1036E0000A280BD89FED287B57EC176B0AE00023C4
:1036F0002046C4E9003302B0BDE8F087FEF7D2F8F7
:1037000006460F4628680AF027FD02460B4681460A
:103710008A4630463946FEF765F806460F4640466B
:10372000FEF7C0F832463B46CDE90001FEF716F938
:1037300088B948465146DDE90023FEF72FF8FDF72A
:10374000A7FFFEF7D3F8002368602046C4E90033E2
:1037500002B0BDE8F08730463946FDF799FF0022F8
:103760000B4BFDF7F3FFFEF7C1F84FEA480181422A
:1037700038BF01462846FFF74BFF01236060204613
:10378000237002B0BDE8F087000000000000264072
:103790000000F03F6FF0004008B50B6883421BD279
:1037A000934204D9B3EB420F4FEA420C04D3581CA6
:1037B000BDE80840FEF730B9844505D3084B0B60DF
:1037C000BDE80840FEF728B90CF10100C1F800C0BF
:1037D000BDE80840FEF720B90248FFF7E9FE00BF48
:1037E000FEFFFF7FB0E2001000487047C8E2001003
:1037F000034B10B50446036000F09AFA204610BD52
:103800002CF20010054B10B50446036000F090FA4E
:1038100004212046FEF704F9204610BD2CF20010CA
:1038200000487047D8E20010034B10B5044603600F
:10383000FFF7DEFF204610BD68F20010054B10B503
:1038400004460360FFF7D4FF04212046FEF7E8F8A2
:10385000204610BD68F2001021494A6830B5A0F139
:1038600008043AB350F8083C04EB030E1D467245B9
:1038700020D8536825D073B301F1040C05E05968D2
:1038800002F1040C1A4651B10B469E45F7D820D1DF
:10389000536819685B680D445360DCF800301A689F
:1038A00099188C420AD05B6840E90253DCF800307A
:1038B0005C6030BD40F8042C4C6030BD2A441A6076
:1038C00030BD126840F8043C2A4440F8082C4C6093
:1038D00030BD1346E3E7134601F1040CDFE700BFF8
:1038E0007023002010F1090F23D800F10F0222F0FD
:1038F00007021549486828B3043102E0011D4068F9
:10390000C8B103689342F9D308680368A3EB020CBB
:10391000BCF1070F10B544680ED900EB020ECEF8CB
:10392000044040F802C0086802600830C1F800E0B6
:1039300010BD0822DDE77047A64603600830C1F8D5
:1039400000E010BD704700BF7023002010B500F1EB
:1039500080048030FEF73AF838B103468022002117
:1039600018460AF0C1FB803010BD2046FFF7BAFFB1
:1039700003460028F2D100F009FD00BF064B803855
:10398000D3E902231344984201D2824201D3FEF7C5
:1039900041B8FFF761BF00BF7023002070B500245D
:1039A000354D8AB03548EC60C5E9014408F068FB44
:1039B0000823334904930923324A079304230694C6
:1039C0000591CDE90823A0B1044623780F222E48A3
:1039D0003A2B08BF013421460AF0A2FB10B9E37B61
:1039E0002E2B16D020463A2109F0CAFA04460028A8
:1039F000EBD1099A069C402AA8BF4022002C08BFA0
:103A000006243E3402FB04F4A400EC60ACB90AB016
:103A100070BD103404AB1E68214632462EB1586882
:103A200001930AF07DFB019B10B9A25D3D2A0ED0E7
:103A30000C330AAA9342EED1D4E72046FDF7C6FF25
:103A4000A860B0B100236860C0E90043DFE7701CE4
:103A5000002203A90193204409F028F9039C22784D
:103A6000002A18BF3A2ABDD10028BBDB019B986011
:103A7000B8E7E860CBE700BF70230020F4E2001055
:103A800008E3001014E3001020E300101EB400F05F
:103A90008FF81EBC0AF050FB70B51E46037884B048
:103AA0000C46472B1AD0002026490B680191039041
:103AB00008469B689847019970B1039B02251B68D3
:103AC00003932368204603AA1C690123A04720BB57
:103AD0000546284604B070BD0125F2E743784E2B19
:103AE000E1D18378552BDED1C378432BDBD1037929
:103AF000462B1BD0432BD6D143792B2BD3D18379A3
:103B00002B2BD0D1C379012BCDD84FF0000350F827
:103B1000201C039306D05830C7E7039B2846336028
:103B200004B070BD084651F8781CBEE743794F2BAE
:103B3000B9D18379522BB6D1C0790028B3D10249CB
:103B4000B3E700BFF8F20010CCF2001010B5044645
:103B500000F004F9234613F82029472A04D082688C
:103B600022BB8360012010BD62784E2AF7D1A27873
:103B7000552AF4D1E278432AF1D12279432AEED1B1
:103B800062792B2AEBD1A2792B2AE8D1E279012A9A
:103B9000E5D854F8042C0132012A44F8042CE1D170
:103BA000826844F8082C8360012010BD00F0EEFB11
:103BB00008B500F0D3F883687BB393F82020472A38
:103BC00004D00022826003F1200008BD93F8212078
:103BD0004E2AF6D193F82220552AF2D193F82320C9
:103BE000432AEED193F82420432AEAD193F82520E2
:103BF0002B2AE6D193F826202B2AE2D193F827200E
:103C0000012ADED8DA69013ADA61002ADBD1996942
:103C1000816003F120009A6108BD00F0B7FB00BF8E
:103C200010B5044682B000F099F80368224612F8F5
:103C30002019472905D0002B34D10260184602B064
:103C400010BD61784E29F6D1A1785529F3D1E178DC
:103C50004329F0D121794329EDD161792B29EAD18A
:103C6000A1792B29E7D1E1790129E4D854F80C1C7A
:103C7000002914DB013144F80C1C9342416801F126
:103C8000FF31416002D044F8103C0260636A204674
:103C900001930AF059FA019B184602B010BDC1F118
:103CA0000101E8E700F072FB08B500F053F80246A6
:103CB000006870B390F82030472B06D000232030E6
:103CC0001360BDE808400AF017BA90F821304E2B77
:103CD000F4D190F82230552BF0D190F82330432BBB
:103CE000ECD190F82430432BE8D190F825302B2BE1
:103CF000E4D190F826302B2BE0D190F82730012B1F
:103D0000DCD84369002B05DB013B08D05A1C0DD0E1
:103D1000436108BD0133FBD101691160F8E7036914
:103D200020301360BDE808400AF0E6B900F02EFB31
:103D3000704700BF704700BF0048704730E3001075
:103D400000B583B004210190FDF76AFE019803B02D
:103D500000BD00BF004870471C2500200048704788
:103D60001C250020502870B51D461ED000F00F0302
:103D700084460E460C2B55D8DFE803F0074426078F
:103D80001E545454542A22071E00104650F8043B77
:103D90004BB10CF07001102918BF32461CF0800F97
:103DA000134418BF1B682B6070BDD01C20F00300AB
:103DB00050F8043B2B6070BD104650F8083BE7E715
:103DC000104630F9023BE3E7104630F8023BDFE7EC
:103DD00000231046194610F8014B04F07F0E14F032
:103DE000800F0EFA01FE01F1070143EA0E03F2D142
:103DF0001F29CDD86406CBD54FF0FF3404FA01F16A
:103E00000B43C6E700231046194610F8014B04F097
:103E10007F0E24060EFA01FE01F1070143EA0E03AC
:103E2000F3D4B5E708F024F9FF281FD008B500F057
:103E30007003302B15D006D8202B0BD10846BDE8D7
:103E400008400AF065B9402B07D10846BDE8084094
:103E50000AF03AB903D8002008BD502BFBD008F077
:103E600007F90846BDE808400AF042B9002070474B
:103E700030B5034683B00D46144618B101900AF0E0
:103E800023F9019B2A46206012F8015BFF2D2ED1F9
:103E90006060104610F8012BFF2A39D04FF0000C5B
:103EA00010236246237510F8011B01F07F030906F9
:103EB00003FA02F302F107024CEA030CF3D400EB1D
:103EC0000C034FF0000CE36010F8013B6246637591
:103ED00010F8011B01F07F03934007324CEA030CFA
:103EE0000B06F5D400EB0C03236103B030BD19467B
:103EF00028460192FFF798FF019A0146231D2846A4
:103F0000FFF730FF0246104610F8012BFF2AC5D1FB
:103F100000232275D5E700BF00F003032DE9F04F21
:103F2000012B99B04FF000048946904603940E94FB
:103F300000F0A680022B0AD1414648460AF0C0F89C
:103F4000002840F09280082019B0BDE8F08F002BC7
:103F500040F00D8210F00804EED112AB012504935D
:103F6000049B0C224046CDF848900093002319464C
:103F70000AF0B6F840460AF0C3F806900028DBD0F5
:103F800044EA0503049A06994046059311AF039B42
:103F90008DF85C300023CDE91533FFF769FF159BE1
:103FA00004469DF85C004146DDF858A00993039053
:103FB000FFF73AFF002308900F224046194600976A
:103FC0000AF0AAF85445119B36D223F001039DF85C
:103FD0005D50DDF848B05E1E00212846FFF724FF43
:103FE000224601460FAB2846FFF7BCFE04460021DF
:103FF0002846FFF719FF2246014610AB2846FFF777
:10400000B1FE044600212846FFF70EFF2246014676
:104010003B462846FFF7A6FE04460020024614F859
:10402000011B01F07F039340073218430B06F6D4BF
:104030000F9B5B44B3421CD9059BDC0727D50025A9
:104040002E46002340460D22009719460E9C0AF08A
:1040500063F8069B0620C9F82440C9F82850C9E92E
:104060000B36119BC9F820306EE7092019B0BDE866
:10407000F08F109A1344B3425BD85445ACD3DBE7BE
:1040800010F008040AD012AB0493022568E7059BE0
:10409000180700F16A81484607F061FF12AB0D6A0C
:1040A0000D22404604930093039B19460AF034F80E
:1040B000129B9D42E9D14046CDF84890DDE903329C
:1040C000009219460C220AF00BF8D9F83060002E45
:1040D000E1D011AFD9E90A530693002DC0F2058152
:1040E00003240023404600971A461946CDF8449011
:1040F00009F0F6FF0023012240460097194611956A
:1041000009F0EEFF00230F224046194600970AF0FF
:1041100003F8119A0023404602F001020097194665
:10412000324311920F2209F0DBFF022C72D00720DC
:104130000AE7119E002E3FF4FFAE139A16440028A2
:1041400000F00381002E3FF4F7AE059B013813F019
:1041500008020AEB000400F0FC80864BC9F800302E
:10416000854BC9F80430B9F100034FF0010BDDF8BD
:1041700024A018BF0123002A18BF00230A9300239C
:104180000793039B03F00703CDE90B680D9300250C
:104190002A4614F8011B01F07F03080603FA02F314
:1041A00002F1070245EA0305F3D41F2A09D80BFAE6
:1041B00002F311F0400FC3F1000343EA050318BFF7
:1041C0001D4600262046324610F8011B01F07F03F1
:1041D000934007321E430B06F6D41F2A36D84B06EF
:1041E00034D50BFA02F35B421E43002D65D0059BCC
:1041F000022B0DD0002D2FDC6FF040435B1B0AEB30
:1042000083085AF823100A9B002B5AD199B12EB17A
:104210003444BCE74846FFF799FC88E7079BDDE993
:104220000B68002B3FF488AE059BDD073FF584AE9D
:104230000025022455E7059BDA07DDE90B683FF509
:1042400000AF002D3FF44CAF00F0ACF885B1059BFA
:10425000022BDCD0002DCFDD039BFF2B6CD00D9A01
:10426000042A00F28480DFE802F008822508220098
:1042700001230793002ECBD1D0E7AAEB8502089942
:104280003B460398FFF76EFD119949B1B9F1000F54
:10429000BDD00EAB00224846FFF7FEFB0028B6D08B
:1042A000059BD907DDE90B683FF5CBAE18E7AAEB14
:1042B000C502E4E7AAEB4502E1E701233444079392
:1042C00065E700293AD00E9B119303E058F8041FCC
:1042D000002933D041443B4600224846FFF7DCFB2F
:1042E0000028F3D0002E93D198E7099B4046049A0A
:1042F0001593039B06998DF85C30FFF7B9FD414695
:104300009DF85C00159CFFF78FFD6FF04042521B3B
:1043100054F8223004EB820433B12246002352F8D1
:10432000041F01330029FAD1C9F83440C9E90A3021
:104330000423C9F83030D3E65246A0E7059BDB07DB
:10434000DDE90B683FF57DAEC7E6002E7FF46CAF6C
:10435000F2E599F80730012B0CBF59F8203C09F120
:1043600058030E93FFE6FFF75BFC00F00FF807F031
:104370007FFE00BF474E5543464F520008B5804769
:1043800007F076FEFFF74CFC07F072FE08B5024B13
:10439000D3E8AF0FFFF7F2FF3C1D002008B58047C0
:1043A000FFF7F4FF08B5024BD3E8AF0FFFF7F6FFB6
:1043B000381D0020014BD3E8AF0F70473C1D002093
:1043C000014BD3E8AF0F7047381D0020012800B51E
:1043D00083B018D8A1F12803D3E8EF2F013AC3E83E
:1043E000E02F0028F8D162B951F81C3C01F15800C7
:1043F00013B101909847019803B05DF804EBFFF703
:10440000BDBA03B000BD51F8140CFFF7B7FF00BFF1
:10441000002310B5044640F8781C40F8803C40F872
:10442000742CFFF7CDFF44F8700CFFF7C3FF07496A
:10443000074A084B44F86C0CA4F1800044F8581C5F
:1044400044F8542C44F8503C10BD00BF474E55432F
:10445000432B2B00CD430010F8B505460E461746FA
:10446000FFF77CFC044631463A4628466368013330
:104470006360FFF7CDFF0123044644F8283B204644
:1044800009F056FE2046FFF7CBFBFFF77FFF00BF8A
:1044900010B5FFF763FCD0E90042013242606CB115
:1044A00094F82020472A0BD00022026004F120005B
:1044B00009F00EFE04F12000FFF7B2FBFFF766FFE4
:1044C00094F821204E2AEFD194F82220552AEBD1DE
:1044D00094F82320432AE7D194F82420432AE3D1F7
:1044E00094F825202B2ADFD194F826202B2ADBD123
:1044F00094F82720012AD7D8626952426261D5E731
:10450000034B10B50446036000F09EFA204610BD30
:1045100050F30010054B10B50446036000F094FA08
:104520000C212046FDF77CFA204610BD50F3001008
:1045300070B582B005460E46069C94420BD0A86822
:104540003146D0F800C00694DCF82040A44602B002
:10455000BDE87040604719460192009300F064F88E
:10456000DDE900320028EAD0062002B070BD00BFAD
:104570002DE9F04383B00F4619468146019200931E
:10458000DDE90A48DDE90C6500F04EF8DDE90032AE
:1045900078B9B44220D0D9F8080039460768CDE987
:1045A0000C65CDE90A48FC69A44603B0BDE8F043B8
:1045B0006047002F2C602A7109DB3C44A64214BFDF
:1045C00001240624AC71002003B0BDE8F08302375B
:1045D000F9D10123AB71F6E741464846CDE9002306
:1045E00000F022F8DDE900230028D4D06A71EAE760
:1045F0002DE9F04107460E4615461C4600F05EFACE
:1046000058B9B86823462A463146D0F800C0DCF8CD
:1046100018E0F446BDE8F0416047BDE8F08100BF16
:10462000704700BF00207047814211D0406808B534
:1046300003782A2B0AD049680B782A2B08BF01314E
:1046400008F0B6FDB0FA80F0400908BD002008BDB2
:10465000012070473A4B1A7870B582B0002A3ED1DB
:1046600001241C7007F0F6FC78B3446800224FF078
:10467000FF30344D2378114601902A2B01AB08BF3F
:104680000134204607F0EEFB2B6830220121DB6865
:1046900006462D4808F0A8F82A68019BD16883B126
:1046A000204608F065FC2B68022201212748DB68C0
:1046B00008F09AF8019B13B93046FDF7ABF9FFF704
:1046C000E7FE304608F054FCEDE71E4B2D22214654
:1046D0001F481B68DB6808F087F807F0C9FC194B16
:1046E0001D2201211B481B68DB6808F07DF807F0DC
:1046F000BFFC01290C4619D1FFF792FA03689B68A9
:1047000098472B6806460B222146DB68124808F0C2
:104710006BF82B683046D96808F02AFC2B680A2011
:10472000D96808F09DFBFFF7BFFAD6E7FFF778FAE4
:10473000FFF7BAFAD1E7FFF7B7FAFFF7A7F900BF1B
:104740003C2700205C21002064E3001098E3001067
:104750009CE3001044E30010CCE300104068704775
:104760000D4943680D4A10B5044682B00160A3F1BB
:104770000C00904205D12046FFF7DAFA204602B03D
:1047800010BD53F8042C511E002A43F8041CF2DC1F
:1047900001A900F035F9EEE7F0F30010282500201C
:1047A0000D4943680D4A10B5044682B00160A3F17B
:1047B0000C00904205D12046FFF7BAFA204602B01D
:1047C00010BD53F8042C511E002A43F8041CF2DCDF
:1047D00001A900F015F9EEE7F0F3001028250020FC
:1047E0000D4943680D4A10B5044682B00160A3F13B
:1047F0000C00904205D12046FFF79AFA204602B0FD
:1048000010BD53F8042C511E002A43F8041CF2DC9E
:1048100001A900F0F5F8EEE7F0F3001028250020DC
:104820000F4943680F4A10B5044682B00160A3F1F6
:104830000C00904208D12046FFF77AFA2046FDF797
:10484000EDF8204602B010BD53F8042C511E002A8A
:1048500043F8041CEFDC01A900F0D2F8EBE700BF3D
:10486000F0F30010282500200F4943680F4A10B5C7
:10487000044682B00160A3F10C00904208D12046AA
:10488000FFF756FA2046FDF7C9F8204602B010BDE2
:1048900053F8042C511E002A43F8041CEFDC01A934
:1048A00000F0AEF8EBE700BFF0F300102825002081
:1048B0000F4943680F4A10B5044682B00160A3F166
:1048C0000C00904208D12046FFF732FA2046FDF74F
:1048D000A5F8204602B010BD53F8042C511E002A42
:1048E00043F8041CEFDC01A900F08AF8EBE700BFF5
:1048F000F0F30010282500201C4BF0B5044685B0CD
:10490000036079B308460D4608F030FD0646B0B1A5
:1049100003AA002100F046F8012E034600F10C071F
:1049200012D0019029463246384609F009FC019B15
:104930000F4A93420BD12046676005B0F0BD0D4F82
:104940002046676005B0F0BD2A780273F0E70022C8
:104950001E601E449A603273EDE72046FFF7E8F9C7
:10496000FFF794F80448FEF70BFE00BFF0F30010C9
:104970002825002034250020D8E3001010B5044677
:10498000FFF7BAFF014B2046236010BD04F400106E
:1049900010B50446FFF7B0FF014B2046236010BD61
:1049A00018F40010144A904200B583B020D8884211
:1049B000034612D94800834238BF034603F11D0065
:1049C000B0F5805F09D9994207D203F58053C0F34F
:1049D0000B001B1A934228BF134603F10D000193ED
:1049E000FDF71AF80022019BC0E9013203B000BDB7
:1049F0000248FEF7DDFD00BFFCFFFF3F04E40010AE
:104A0000FDF70CB8036870B5002484B09E691023CC
:104A10001546039402936B461268CDE90044B047F3
:104A20009DF8043003F00603062B04D1009B0120FF
:104A30002B6004B070BD204604B070BD0098904259
:104A40000CBF062001207047034B10B504460360DD
:104A5000FFF7E6FD204610BD5CF40010054B10B5D5
:104A600004460360FFF7DCFD08212046FCF7D8FF71
:104A7000204610BD5CF4001030B583B015460446E6
:104A80000899069A8A420DD019462046FFF7CCFDB8
:104A900028B1099A012306991571116093710020BC
:104AA00003B030BD07990193FFF7BEFD019B0028BD
:104AB000EAD0099B00205D7103B030BD10B582B013
:104AC00014460193FFF7B0FD019B20B10821062297
:104AD0001C60D9601A7102B010BD00BF2DE9F04111
:104AE000074616461C460D46FFF79EFD48B9032CA7
:104AF00007D82B683246394628465B69BDE8F04145
:104B00001847BDE8F08100BF502970B5864660D8CF
:104B1000342940D829290AD9A1F12A00082851D8D6
:104B2000DFE800F0232221502123235422000A2908
:104B30004AD9A1F10B0C01205FFA8CFC00FA0CF0B1
:104B4000DFF8D4C000EA0C0CBCF1000F3ED1DFF856
:104B5000CCC010EA0C0F08D1DFF8C4C000EA0C0C7E
:104B6000BCF1000F2ED06AB363B3DEE90504A042A6
:104B700028DADEF8104000EB8005461C4FF0000CF0
:104B800004EB8500C0E901CCCEF8146004F82510D0
:104B9000C0E9032370BDA1F1350C01205FFA8CFC44
:104BA00000FA0CF0DFF87CC000EA0C0CBCF1000F3E
:104BB0000CD1DFF874C000EA0C0CBCF1000FD2D1AC
:104BC0004F29D2D0002070BD0429CCD9002ACCD1E5
:104BD000F8E7A1F152000C28F8D80FF2080C5CF8A5
:104BE00020F000BF6B4B00106B4B0010CD4B001042
:104BF000694B0010694B0010674B0010CD4B001043
:104C0000CD4B00106B4B0010CD4B0010CD4B001066
:104C1000CD4B0010674B0010FE1F005F00C07F00EF
:104C2000010080000711C701F82E000A8446D0E970
:104C3000053083421CDA30B503EB8305DCF8104005
:104C400001334FF0000E04EB8500C0E901EECCF813
:104C5000143059B17245CCBF0023012333B9C0E9E8
:104C6000013304F82530C0E9031230BD002030BD07
:104C700000207047C26870B513786E2B25D0303B8A
:104C8000DAB2092A2AD8002600226FF00044DFF8A1
:104C900050E007E0C368591CC1605B78303BD9B273
:104CA00009290DD8E11A02EB820CAEFB0151B2EBDF
:104CB000D10F03EB4C02EDDD4FF0FF32104670BD1B
:104CC000002EFBD05242104670BD531CC360537877
:104CD000303BDAB2092A01D80126D5E70022EDE7F8
:104CE000CDCCCCCC00B5034683B069B1682927D0C0
:104CF00018460193FFF7BEFF019BDA6811785F2920
:104D00000ED0002003B000BDC26811780029F8D091
:104D1000511CC1601278682A12D0762AF1D1E7E7D7
:104D2000013218460193DA60FFF7A4FF019BDA68AD
:104D300011785F29E5D101320120DA6003B000BDAE
:104D400018460193FFF796FF019BF0E7C3680A46F8
:104D500093F800C0BCF1520F04D0BCF14F0F01D04A
:104D600008467047BCF1520FC16A00B50DD001F181
:104D7000030E202103F1010CC0F82CE000235DF8A4
:104D800004EBC0F80CC0FFF7BFBE01F1020E1F21FB
:104D9000F0E700BFC26811785F2901D00120704799
:104DA000511C00B583B0C16051785F2906D0FFF770
:104DB00061FF002813DB012003B000BD0232019027
:104DC000C260FFF757FF002809DB0928F3DD019BCC
:104DD000DA6811785F2902D10132DA60EBE700204E
:104DE00003B000BD002900F088800B4699680129B6
:104DF0002FDCD0F81C21B2F5806F2ADC1A78013143
:104E0000422A99603CD8232A24D8013AD1B22229D7
:104E100070D8222A1DD8DFE802F0171717121C1CC1
:104E20002F2F1717171717171717171717171717E2
:104E3000171C171717171717171717171700D0F87A
:104E400044210132C0F84421D0F81C21B2F5006F92
:104E50002EDD7047A2F124014FF0010CC9B20CFA0B
:104E600001F1DFF89CC001EA0C0CBCF1000FEBD1A2
:104E7000890735D1342AECD11B69002BB6D1704794
:104E8000453AD2B2192A37D80121DFF878C001FAA1
:104E900002F202EA0C0CBCF1000FD5D117490A420C
:104EA00002D112F0180F26D0DB68002B9ED170477C
:104EB000013200B583B0C0F81C21D968019000937D
:104EC000FFF790FF009B019819690090FFF78AFF98
:104ED0000098D0F81C31013BC0F81C3103B000BD74
:104EE000DA681278052AAFD1D0F838210132C0F83B
:104EF0003821A9E7704770477047704706100400D3
:104F0000EC7DFE7FC16F0002034658B1002004E033
:104F1000DA682AB11B6901301BB11A78302AF7D040
:104F200070477047704700BF20B909E039B1006988
:104F3000013930B10378302BF8D000207047C068B9
:104F40007047704713460A4630B50546481C5968F5
:104F500085B008449968884214D8DC6884B9294629
:104F600002930192D3E90050284409F0E9F8029B2A
:104F7000019AD3E9001011440C5459681144596046
:104F800005B030BDDC68002CFAD181B149008842FF
:104F9000FCD818680193CDE90212FCF729FD039AA9
:104FA0000446DDE9013138B118609960D5E702287F
:104FB0004FF00201EAD8ECE71868FCF72BFD019BE3
:104FC0000122C3E90044C3E90242D9E703784B2B2D
:104FD00016D00DD8442B15D14378A3F1770003F0F8
:104FE000DF034F2B18BF012894BF0120002070471A
:104FF000562B05D0A3F17200B0FA80F0400970473B
:10500000012070470020704730B50C46D0F80011E1
:1050100083B00346FF2907D04A1CC3F800215C5423
:1050200083F8044103B030BD4FF00002019080F8D6
:10503000FF20D0E94252A847019B01220021D3F86A
:105040002801C3F800211044C3F828015C5483F8F8
:10505000044103B030BD00BFD0F810318BB15A68A5
:10506000CB681069002B0BDB20B906E03BB100696F
:10507000013B10B10278302AF8D000207047C06898
:1050800070470123C0F81831F7E700BF2DE9F0475A
:10509000044608460D4608F069F980B3013DD4F88E
:1050A00000114FF000094FF0010800EB050A08E07D
:1050B0003D46591CAA45C4F80011E65484F8046121
:1050C0001DD0FF296E7805F101070B46F0D120466F
:1050D00084F8FF90D4E942329847D4F828315745F4
:1050E000C4F8008103F1010226704FF0010384F837
:1050F0000461C4F8282102D015F8026FD9E7BDE891
:10510000F08700BF00295AD00B4610B5044682B084
:105110001A78342A1ED8342A25D8DFE802F02E2443
:10512000242424312E2B2B2424242424242424241A
:105130002424242424242E24242424242424242425
:105140002424242424242E24242424242424242415
:10515000242E2B00433AD2B21C2A04D8194921FA32
:1051600002F2D20709D4D96820460193FFF7CAFF9B
:1051700020B9019B1B69002BCAD1002002B010BDD1
:10518000D4F81021BAB1DB685268002B10690BDB30
:1051900028B9F2E73BB10069013B0028EDD0027865
:1051A000302AF7D0E9E7C0680028E6D00378302B32
:1051B000E3D102B010BD0123C4F81831DDE70020AF
:1051C000704700BFE30C0010C1680A78542A2ED142
:1051D0004A1C034610B582B0C26049785F2928D0C6
:1051E0006E2921D00190FFF745FD10F1010C1BD471
:1051F000019BDA6811785F2916D10132D3E90510D5
:10520000DA60814210DA1A6901EB810E4C1C002130
:1052100002EB8E00C0E901115C61052302F82E301B
:10522000C0F80CC002B010BD002002B010BD0020BC
:1052300070474FF0000CE0E72DE9F04788B00A46D0
:1052400004461E4901A8FDF735FF01A808F08EF8B5
:1052500080B301AED4F800114FF000094FF00108FF
:1052600006EB000A08E02E46591CB245C4F80011AE
:10527000E75484F804711DD03546FF290B4615F814
:10528000017BF0D1204684F8FF900236D4E9423207
:105290009847D4F828315545277003F1010284F866
:1052A00004714FF00103C4F80081C4F8282101D033
:1052B0002F78D9E708B0BDE8F08700BF1CE40010E4
:1052C00030B583B00546FFF7D5FC031E28DDEC683A
:1052D0006A68121B93422BDCA968E2184907EA604E
:1052E00002D5E15C24291ED0092B11DD08221E49BC
:1052F0002046019308F014FF019B48B9227A5F2AE7
:1053000018BF2E2A01D0242A02D1627A4E2A11D047
:105310001A4621462846FFF789FCA86203B030BD33
:10532000002003B030BD0132092BEA60DEDCEFE77C
:105330000020F2E7E96AD5E9052016318242A1EBA7
:105340000301E962F4DA296902EB820400230132E5
:1053500001EB84006A61054AC0E9013301F8243099
:105360001523C0E90323D8E720E400102CE4001043
:10537000C3681A78532A3DD15A1CF0B583B0C26075
:1053800093F801C0BCF1000F1DD1836803F008023F
:10539000C3F3C00383F00103DC076AD5CB0768D5EC
:1053A000C3681B78433B012B8CBF4FF0000E4FF0BE
:1053B000010E634B03F1C4011A7862455CD01C33C3
:1053C0008B42F9D13BE09A1CC26093F801C0ACF16A
:1053D000300E5FFA8EF3092B0FD8BCF15F0F18D196
:1053E0000023026A9A422AD9C26952F82320104641
:1053F00003B0F0BD002210467047ACF15F02B2FA74
:1054000082F25209002AE8D1ACF14103192B01D9EB
:10541000BBE700225FFA8EFE02EBC203BEF1090F6A
:105420000CEB83030FD8303B9A421A4607D8C16869
:1054300091F800C001F1010EBCF1000F0ED1002265
:10544000104603B0F0BD02EBC203ACF141010CEB1E
:1054500083031929A3F13703E6D9F0E7C0F80CE07C
:1054600091F800C0BCF15F0FACF1300ED2D1013326
:10547000B7E74FEAD20E9CE75C69D0E9052CACB1E6
:1054800062455ADA996902EB8206056900270191A3
:10549000013205EB8601C1E901774FF0180742613F
:1054A00005F82670CC60019C0C618162BEF1000F92
:1054B0003DD0D9680D461969C36A62450B44C36281
:1054C00039DAD0F810C002EB820E541C00230CEB2A
:1054D0008E02C2E901334FF0180344610CF82E30FC
:1054E000C2E90351C3681978422980D1816A044610
:1054F0000D46013320460192E360FFF7E1FE019A79
:1055000003464E212046FFF7FFFAE368024619786A
:105510004229EED0A562002A91D0236A616A8B42AB
:105520008DDAE069591C40F8232021625FE7596851
:105530000D469968C0E70022D4E70021B5E700BF17
:1055400090F40010F8B5C3681A78572A27D104469A
:105550000E4607E0E368E56945F8220021621A7803
:10556000572A1CD15A1C5525E2605A78502A02D17C
:1055700002335625E36037682046FFF7A1FE29462F
:1055800003463A462046FFF7BFFA306030B1D4E90F
:1055900008239A4202F10101DCDB0020F8BD012062
:1055A000F8BD00BFC268F0B5044687B01046FFF7EB
:1055B0000DFD00BB1378552B68D8402B40F2978027
:1055C000413B142B00F29380DFE813F09A01910025
:1055D0008601140191009401C20091009100910094
:1055E00091009100CA019100B400A60091009800BA
:1055F0009100E700D000002203A9204601F042FA02
:1056000000283BD0E268009020461278462A39D024
:10561000FFF7C8FF009B186000282FD002781F3AC0
:10562000012A05D80399C268C160196803911A60FC
:10563000039B1BB3D4E908218A421FDAE069511C9D
:1056400040F822301846216207B0F0BD0123256BD7
:105650002046236300F068FF0023024645212046D0
:105660002563FFF751FA0246039038B1E3681978D1
:1056700021B1591CE1601B78452B2BD00023184623
:1056800007B0F0BD00F030FC009BC4E7A3F161015E
:105690005FFA81FEBEF1190F29D84FF0010CBC4B07
:1056A0000CFA0EFC0CEA0303002B40F0E382BEF17F
:1056B000140F1CD1013220460093E260FFF700FE78
:1056C000009B024629212046FFF71EFA024603905E
:1056D000002AD3D0D4E908318B42CFDAE069591CD3
:1056E00040F82320039B2162184607B0F0BD01213A
:1056F000204607B0BDE8F04001F022BB0132204651
:10570000E260FFF74FFF0023024624212046FFF707
:10571000FBF902460390DBE701322046E260FFF727
:1057200041FF0023024623212046FFF7EDF9024600
:105730000390CDE701322046E260FFF733FF0023FC
:10574000024625212046FFF7DFF902460390BFE716
:1057500001322046E260FFF725FF002302462721A1
:105760002046FFF7D1F902460390B1E70132204607
:10577000E260FFF7A5FDE36805461A78492A00F0C4
:105780009C822046FFF70EFF2B4602462221204630
:10579000FFF7BAF9024603909AE72046FFF714FD97
:1057A000E168039002460B78492B91D1636B002B83
:1057B00040F0BA8200283FF461AFD4E90805A8425E
:1057C000BFF65CAFE56945F820200130206208781B
:1057D0004938012807D8013120460092E16001F0E4
:1057E000FBF9009A034604212046FFF78DF9024693
:1057F00003906DE7531CE3605378002B3FF43EAFFA
:10580000931CE3605378463B302B3FF637AF01A142
:1058100051F823F0955900107D5600107D56001068
:105820007D5600107D5600107D5600107D560010EC
:105830007D5600107D5600107D5600107D560010DC
:105840007D5600107D5600107D5600104D560010FC
:105850007D5600107D5600107D5600107D560010BC
:105860007D5600107D5600107D5600107D560010AC
:105870007D5600107D5600107D5600107D5600109C
:10588000695B00107D5600103D5B00100B5B001043
:10589000D95A0010C75B00107D560010955B0010B0
:1058A000F95B00107D5600107D5600107D560010EB
:1058B0007D560010775A00107D5600105D5C001078
:1058C0007D5600107D560010A75A00104D5600104E
:1058D0002B5C0010155A001001322046E260FFF7E1
:1058E00061FE0023024626212046FFF70DF90246FD
:1058F0000390EDE6204600F0F7FA02460390E7E653
:10590000511CE16053785F2B00F0D581303B092BAF
:1059100000F2FA810B461D460133E36018783038F7
:105920000928F8D9AA1A20460093FFF77FF9024602
:1059300000283FF4A3AE6978009B5F297FF49EAEF8
:105940001946013120460092E160FFF72BFE009AD4
:1059500003462B212046FFF7D7F802460390B7E60F
:1059600001322046E260FFF71DFE00283FF486AEBC
:1059700000902046FFF716FE034600283FF47EAE57
:10598000009A2C212046FFF7BFF8024603909FE6BD
:10599000FF7BEC032046FFF76DF9E36802461978B8
:1059A00062290E4600F0E981782903D05F297FF44F
:1059B00065AE0026616903F1010CA369994280F28A
:1059C00007821420D4F810E04D1C01FB00F00021E8
:1059D0000EEB0003C3E901114FF05F016561009315
:1059E0000EF8001003A8BB491A82D9609E74BA4908
:1059F000C4F80CC0FDF75EFB03A807F0B7FC009BE2
:105A0000E16ADA6852680A44002E18BF0132024483
:105A1000E26234E693785F2B00F0CA81D4E9053264
:105A20009342BFF62BAE216903EB83004FF0000CCD
:105A3000013301EB8002C2E901CC6361442300928F
:105A400001F820302046FFF715F9009AD060E3688E
:105A500019785F297FF412AE013320460092E3608B
:105A6000FFF7A0FD009A03462E212046FFF74CF8D1
:105A7000024603902CE6D4E905239A4280F2AE81D7
:105A8000216902EB82004FF0000C013201EB800330
:105A9000C3E901CC6261282201F820208F49E26A23
:105AA000D9601132B4E7D4E905239A4280F2968195
:105AB000216902EB82004FF0000C013201EB800300
:105AC000C3E901CC6261282201F82020E26A8449FE
:105AD0000832D960E262D2E5D4E905239A4280F225
